S012000073646B5F6174333238702E737265638F
S11300000C94BD000C9410020C9445020C94DA007C
S11300100C94DA000C94DA000C94DA000C94DA00F4
S11300200C94DA000C94DA000C94DA000C94DA00E4
S11300300C94DA000C94DA000C94DA000C94DA00D4
S11300400C94DA000C94DA000C9400090C94DA0095
S11300500C94DA000C94DC000C94DA000C94D401B7
S11300600C94DA000C94DA009405970512051F0528
S11300702C0539054605530560056D057A05870588
S113008000407A10F35A00A0724E18090010A5D44B
S1130090E80000E87648170000E40B54020000CAA8
S11300A09A3B000000E1F5050000809698000000EE
S11300B040420F000000A08601000000102700004D
S11300C00000E803000000006400000000000A00D3
S11300D0000000000100000000002C76D888DC67D6
S11300E04F0823DFC1DFAE59E1B1B796E5E3E4532E
S11300F0C63AE651997696E8E6C28426EB898C9B4B
S113010062ED407C6FFCEFBC9C9F40F2BAA56FA5EA
S1130110F490055A2AF75C936B6CF9676DC11BFC6C
S1130120E0E40D47FEF520E6B500D0ED902E030087
S1130130943577050080841E080000204E0A0000D4
S113014000C80C333333330F986E12831141EF8D93
S11301502114893BE65516CFFEE6DB18D1844B38D3
S11301601BF77C1D901DA4BBE424203284725E2204
S11301708100C9F124ECA1E53D2711241FBECFEF76
S1130180D8E0DEBFCDBF11E0A0E0B1E0E8EBFAE1DA
S113019002C005900D92A03AB107D9F721E0A0EA78
S11301A0B1E001C01D92A33AB207E1F70E942F0308
S11301B00C945A0D0C9400001F920F920FB60F92DC
S11301C011248F929F92AF92BF92FF920F931F932D
S11301D02F933F934F935F936F937F938F939F934B
S11301E0AF93BF93EF93FF93CF93DF93CDB7DEB776
S11301F02A97DEBFCDBF809178006091790070E0CE
S1130200762F6627680F711D80E090E00E94A70991
S113021020E030E040EA50E40E945E0A20E030EC46
S11302204FE754E40E9435094B015C018E010F5FD6
S11302301F4F22E041E00E94D10A20E030E0A901F2
S1130240C501B4010E94590A181654F420E030E0A4
S113025040EA5FE3C501B4010E9430098823ACF091
S113026020E030E040EA5FE3C501B4010E94590A8E
S113027018168CF420E030E040E250E4C501B401EB
S11302800E943009882324F006C0FF24F39403C09D
S11302906894FF24F1F820E030E040E250E4C50126
S11302A0B4010E94590A181654F420E030E040E7E3
S11302B050E4C501B4010E9430098823ACF020E069
S11302C030E040E750E4C501B4010E94590A181611
S11302D09CF420E030E040EA50E4C501B4010E94FF
S11302E03009882334F008C00F2EF3E0FF2EF02DE0
S11302F003C06894FF24F2F861E0CE0101960E94E5
S1130300D5044091A1012F2DC501B4010E94CF0550
S11303108091A001803539F481E00E94AC051092EF
S1130320A0011092A1018091A1018F5F8093A1018E
S11303308091A0018F5F8093A001EAE7F0E08081C3
S1130340806480832A960FB6F894DEBF0FBECDBFBB
S1130350DF91CF91FF91EF91BF91AF919F918F91D9
S11303607F916F915F914F913F912F911F910F91C9
S1130370FF90BF90AF909F908F900F900FBE0F9003
S11303801F901895EAE7F0E080818068808380817F
S11303908460808380E480937C0080818860808393
S11303A080818064808308951F920F920FB60F920C
S11303B011242F933F934F935F936F937F938F9366
S11303C09F93AF93BF93EF93FF9362E081E00E940A
S11303D005038DE291E00E9419032FEF83EC99E06D
S11303E0215080409040E1F700C000000E940F03BC
S11303F0FF91EF91BF91AF919F918F917F916F91F9
S11304005F914F913F912F910F900FBE0F901F90CE
S1130410189580B7836080BF80B7886080BF0895D7
S11304201F920F920FB60F9211242F933F934F9365
S11304305F936F937F938F939F93AF93BF93EF9348
S1130440FF9362E081E00E94050388E391E00E944B
S113045019032FEF83EC99E0215080409040E1F79D
S113046000C000000E940F03FF91EF91BF91AF9174
S11304709F918F917F916F915F914F913F912F91B8
S11304800F900FBE0F901F9018951F920F920FB6EA
S11304900F9211242F933F934F935F936F937F9306
S11304A08F939F93AF93BF93EF93FF9362E081E0A9
S11304B00E9405038DE391E00E9419032FEF83EC62
S11304C099E0215080409040E1F700C000000E9474
S11304D00F03FF91EF91BF91AF919F918F917F9106
S11304E06F915F914F913F912F910F900FBE0F909D
S11304F01F901895E9E6F0E080818A6080838DB3CF
S113050083608DBB08951092B90081E08093B80098
S113051084E08093BC00089584EA8093BC008091B9
S1130520BC008823E4F7089584E98093BC008FE934
S11305309FE00197F1F700C0000008958093BB008D
S113054084EC8093BC008091BC008823E4F7089578
S1130550CF93DF93C82F0E948C0280E70E949E02F3
S1130560DC2FD07F8D2F8C600E949E028D2F88609F
S11305700E949E0280E1C89FE00111248C2F8C60B0
S11305800E949E028C2F0E949E020E9494028FE37E
S11305909FE10197F1F700C000008FE39FE101970D
S11305A0F1F700C00000DF91CF910895CF93DF935E
S11305B0C82F0E948C0280E70E949E02DC2FD07F0D
S11305C08D2F8D600E949E028D2F89600E949E0255
S11305D080E1C89FE00111248C2F8D600E949E024F
S11305E08C2F89600E949E020E9494028FE39FE1F7
S11305F00197F1F700C000008FE39FE10197F1F745
S113060000C00000DF91CF910895E62FF0E0E150A3
S1130610FF4F9081890F81580E94A802089581E0BC
S11306200E94A8028FE39FE10197F1F700C0000048
S113063008950F931F93CF93DF938C01C0E0D0E014
S113064003C00E94D6022196F801EC0FFD1F8081A1
S11306508111F7CFDF91CF911F910F9108950E94DF
S11306603F030E9483020E947A020E9409020E94B0
S113067065030E9447040E94C2017894FFCF8FEF64
S113068084B98AB11AB88BB18C608BB917B8089544
S1130690CF93C82F0E948C0288E70E949E0280E0BC
S11306A00E949E028C2F0E949E020E9494028FE35D
S11306B09FE10197F1F700C000008FE39FE10197EC
S11306C0F1F700C00000CF9108950E9483028EEAE2
S11306D00E94480384ED0E94480380E80E94480376
S11306E088EA0E9448038FE30E94480383ED0E9436
S11306F0480380E00E94480380E40E9448038DE898
S11307000E94480384E10E94480381EA0E9448034E
S113071088EC0E9448038AED0E94480382E10E940B
S1130720480381E80E9448038FE00E94480389ED52
S11307300E94480381EF0E9448038BED0E94480306
S113074080E40E94480384EA0E94480386EA0E94E7
S113075048038FEA0E9448030895CF93C82F0E944C
S11307608C0288E70E949E0280E40E949E028C2FE5
S11307700E949E020E9494028FE39FE10197F1F789
S113078000C000008FE39FE10197F1F700C0000073
S1130790CF910895CF93DF9321E0883008F020E0D3
S11307A091E06F3708F090E09223E1F0D62FC82F44
S11307B081E20E9448038D2F0E9448038FE70E9424
S11307C0480382E20E9448038C2F0E94480387E07A
S11307D00E9448030E948C0288E70E949E0280E4E3
S11307E00E949E02DF91CF9108950F931F93CF93A0
S11307F0DF93CDB7DEB7A3970FB6F894DEBF0FBE75
S1130800CDBF85E1E2E0F1E0DE01119601900D92A9
S11308108A95E1F78EE0E7E1F1E0DE01569601907A
S11308200D928A95E1F760E480E00E94CA038FE7A5
S11308300E94AD0300E010E00BC0E1E0F0E0EC0F3B
S1130840FD1FE00FF11F80810E94AD030F5F1F4F5A
S11308500531110594F300E010E00BC0E6E1F0E08F
S1130860EC0FFD1FE00FF11F80810E94AD030F5FAD
S11308701F4F0E30110594F3A3960FB6F894DEBF04
S11308800FBECDBFDF91CF911F910F910895FF92BD
S11308900F931F93CF93DF93CDB7DEB728970FB68F
S11308A0F894DEBF0FBECDBF88E0E5E2F1E0DE01E3
S11308B0119601900D928A95E1F780E00E94AD03B4
S11308C080E00E94AD0300E010E008C0F801E756A4
S11308D0FE4F80810E94AD030F5F1F4F053111054C
S11308E0ACF36AE080E00E94CA0300E010E00BC0B1
S11308F0E1E0F0E0EC0FFD1FE00FF11F80810E94AA
S1130900AD030F5F1F4F0830110594F3FF24F394D8
S113091010C06DE08F2D0E94CA0300E010E005C0F6
S11309208FEF0E94AD030F5F1F4F02301105C4F318
S1130930F39487E08F1568F701E010E005C080E4C8
S11309400E94AD030F5F1F4F0A351105C4F388E4FD
S11309500E94AD0380E70E94AD0380EE0E94AD03C8
S113096080E40E94AD0380E00E94AD0380E00E9419
S1130970AD0300E010E008C0F801EE5BFE4F80819B
S11309800E94AD030F5F1F4F05311105ACF30E94A8
S1130990F50328960FB6F894DEBF0FBECDBFDF91E6
S11309A0CF911F910F91FF9008950F931F93CF93B1
S11309B0DF938C01613041F463E680E00E94CA0356
S11309C080E00E94AD0313C0623041F463E681E02D
S11309D00E94CA0380E00E94AD0309C0633039F469
S11309E063E682E00E94CA0380E00E94AD03C0E097
S11309F09FC0F801EC0FF11DE0818E2F90E0FC0107
S1130A00BE97EC30F10508F092C0EC5CFF4F0C94FB
S1130A10CB0AED2FF0E0ED56FE4F80810E94AD032E
S1130A20DF5F01C0D0E0D630A0F381C0ED2FF0E04D
S1130A30E357FE4F80810E94AD03DF5F01C0D0E029
S1130A40D630A0F374C0ED2FF0E0E957FE4F80815B
S1130A500E94AD03DF5F01C0D0E0D630A0F367C0D1
S1130A60ED2FF0E0EF57FE4F80810E94AD03DF5F72
S1130A7001C0D0E0D630A0F35AC0ED2FF0E0E55825
S1130A80FE4F80810E94AD03DF5F01C0D0E0D6300D
S1130A90A0F34DC0ED2FF0E0EB58FE4F80810E9493
S1130AA0AD03DF5F01C0D0E0D630A0F340C0ED2F2E
S1130AB0F0E0E159FE4F80810E94AD03DF5F01C089
S1130AC0D0E0D630A0F333C0ED2FF0E0E759FE4F6D
S1130AD080810E94AD03DF5F01C0D0E0D630A0F377
S1130AE026C0ED2FF0E0ED59FE4F80810E94AD034A
S1130AF0DF5F01C0D0E0D630A0F319C0ED2FF0E0E5
S1130B00E35AFE4F80810E94AD03DF5F01C0D0E055
S1130B10D630A0F30CC0ED2FF0E0E95AFE4F8081EF
S1130B200E94AD03DF5F01C0D0E0D630A0F3CF5FF9
S1130B30C43008F45ECFC0E008C0EC2FF0E0E75604
S1130B40FE4F80810E94AD03CF5FC630B0F3DF91CA
S1130B50CF911F910F9108950F931F93CF93DF931C
S1130B608130C1F412C06FE086E0801B0E94CA038A
S1130B70C0E0D0E004C080E00E94AD032196CA35F5
S1130B80D105CCF30F5F1F4F02C000E010E003302B
S1130B9011054CF3DF91CF911F910F910895CF92DE
S1130BA0DF92EF92FF926B017C016FE0640F87E0AC
S1130BB0821B0E94CA0380E00E94AD0320E030E063
S1130BC0A901C701B6010E94590A181674F42AE94A
S1130BD039E949E15EE3C701B6010E94300988237F
S1130BE024F480E80E94AD03FFC22AE939E949E10F
S1130BF05EE3C701B6010E94590A181674F42AE983
S1130C0039E949E95EE3C701B6010E943009882346
S1130C1024F480E40E94AD03E7C22AE939E949E9F2
S1130C205EE3C701B6010E94590A181674F426E659
S1130C3036E646EE5EE3C701B6010E94300988231A
S1130C4024F480E20E94AD03CFC226E636E646EEE7
S1130C505EE3C701B6010E94590A181674F42AE922
S1130C6039E949E15FE3C701B6010E9430098823ED
S1130C7024F480E10E94AD03B7C22AE939E949E1CD
S1130C805FE3C701B6010E94590A181674F420E004
S1130C9030E040E45FE3C701B6010E9430098823D5
S1130CA024F488E00E94AD039FC220E030E040E4D9
S1130CB05FE3C701B6010E94590A181674F426E6C8
S1130CC036E646E65FE3C701B6010E943009882391
S1130CD024F484E00E94AD0387C226E636E646E6A5
S1130CE05FE3C701B6010E94590A181674F423E39E
S1130CF033E343E050E4C701B6010E94300988237E
S1130D0024F482E00E94AD036FC226E636E646E88C
S1130D105FE3C701B6010E94590A181674F42AE960
S1130D2039E949E95FE3C701B6010E943009882324
S1130D3024F481E00E94AD0357C22AE939E949E964
S1130D405FE3C701B6010E94590A181674F42DEC2A
S1130D503CEC4CEA5FE3C701B6010E9430098823EA
S1130D6024F480E00E94AD033FC22DEC3CEC4CEA3D
S1130D705FE3C701B6010E94590A181674F420E013
S1130D8030E040EC5FE3C701B6010E9430098823DC
S1130D9024F480E80E94AD0327C220E030E040EC58
S1130DA05FE3C701B6010E94590A181674F423E3DD
S1130DB033E343ED5FE3C701B6010E9430098823A2
S1130DC024F480E40E94AD030FC223E333E343ED34
S1130DD05FE3C701B6010E94590A181674F426E6A7
S1130DE036E646EE5FE3C701B6010E943009882368
S1130DF024F480E20E94AD03F7C126E636E646EE0F
S1130E005FE3C701B6010E94590A181674F42AE96F
S1130E1039E949EF5FE3C701B6010E94300988232D
S1130E2024F480E10E94AD03DFC12AE939E949EFE6
S1130E305FE3C701B6010E94590A181674F426E646
S1130E4036E646E050E4C701B6010E943009882323
S1130E5024F488E00E94AD03C7C126E636E646E0E6
S1130E6050E4C701B6010E94590A181674F420E030
S1130E7030E040E150E4C701B6010E943009882304
S1130E8024F484E00E94AD03AFC120E030E040E1EF
S1130E9050E4C701B6010E94590A181674F42AE9ED
S1130EA039E949E150E4C701B6010E9430098823B9
S1130EB024F482E00E94AD0397C12AE939E949E1AB
S1130EC050E4C701B6010E94590A181674F423E3CA
S1130ED033E343E250E4C701B6010E94300988239A
S1130EE024F481E00E94AD037FC123E333E343E2B2
S1130EF050E4C701B6010E94590A181674F42DEC87
S1130F003CEC4CE250E4C701B6010E94300988234E
S1130F1024F480E00E94AD0367C12DEC3CEC4CE26C
S1130F2050E4C701B6010E94590A181674F426E663
S1130F3036E646E350E4C701B6010E94300988232F
S1130F4024F480E80E94AD034FC126E636E646E36A
S1130F5050E4C701B6010E94590A181674F420E03F
S1130F6030E040E450E4C701B6010E943009882310
S1130F7024F480E40E94AD0337C120E030E040E473
S1130F8050E4C701B6010E94590A181674F42AE9FC
S1130F9039E949E450E4C701B6010E9430098823C5
S1130FA024F480E20E94AD031FC12AE939E949E42F
S1130FB050E4C701B6010E94590A181674F423E3D9
S1130FC033E343E550E4C701B6010E9430098823A6
S1130FD024F480E10E94AD0307C123E333E343E536
S1130FE050E4C701B6010E94590A181674F42DEC96
S1130FF03CEC4CE550E4C701B6010E94300988235B
S113100024F488E00E94AD03EFC02DEC3CEC4CE5E9
S113101050E4C701B6010E94590A181674F426E672
S113102036E646E650E4C701B6010E94300988233B
S113103024F484E00E94AD03D7C026E636E646E6F3
S113104050E4C701B6010E94590A181674F420E04E
S113105030E040E750E4C701B6010E94300988231C
S113106024F482E00E94AD03BFC020E030E040E7FA
S113107050E4C701B6010E94590A181674F42AE90B
S113108039E949E750E4C701B6010E9430098823D1
S113109024F481E00E94AD03A7C02AE939E949E7B5
S11310A050E4C701B6010E94590A181674F42AE9DB
S11310B039E941E850E4C701B6010E9430098823A8
S11310C024F480E00E94AD038FC02AE939E941E8A5
S11310D050E4C701B6010E94590A181674F426E6B2
S11310E036E646E850E4C701B6010E943009882379
S11310F024F480E80E94AD0377C026E636E646E88D
S113110050E4C701B6010E94590A181674F423E387
S113111033E34BE850E4C701B6010E943009882349
S113112024F480E40E94AD035FC023E333E34BE87F
S113113050E4C701B6010E94590A181674F420E05D
S113114030E040E950E4C701B6010E943009882329
S113115024F480E20E94AD0347C020E030E040E97F
S113116050E4C701B6010E94590A181674F42DEC14
S11311703CEC44E950E4C701B6010E9430098823DD
S113118024F480E10E94AD032FC02DEC3CEC44E933
S113119050E4C701B6010E94590A181674F42AE9EA
S11311A039E949E950E4C701B6010E9430098823AE
S11311B024F488E00E94AD0317C02AE939E949E91B
S11311C050E4C701B6010E94590A18166CF420E0D5
S11311D030E040EA50E4C701B6010E943009882398
S11311E01CF484E00E94AD03FF90EF90DF90CF9059
S11311F008959091C00095FFFCCF8093C600089598
S11312001F920F920FB60F9211242F933F934F9377
S11312105F936F937F938F939F93AF93BF93EF935A
S1131220FF938091C6008093A2018DE20E94F90889
S11312308EE30E94F9088091A2010E94F908FF91AF
S1131240EF91BF91AF919F918F917F916F915F913A
S11312504F913F912F910F900FBE0F901F901895B3
S11312600E94E40908F481E008950E9449090C945D
S11312701F0A0E94180A58F00E94110A40F029F42B
S11312805F3F29F00C94080A51110C94530A0C94F2
S11312900E0A0E94300A68F39923B1F3552391F39F
S11312A0951B550BBB27AA2762177307840738F0D1
S11312B09F5F5F4F220F331F441FAA1FA9F335D02E
S11312C00E2E3AF0E0E832D091505040E695001CE2
S11312D0CAF72BD0FE2F29D0660F771F881FBB1F9C
S11312E0261737074807AB07B0E809F0BB0B802D7A
S11312F0BF01FF2793585F4F3AF09E3F510578F0A6
S11313000C94080A0C94530A5F3FE4F3983ED4F318
S1131310869577956795B795F7959F5FC9F7880F79
S1131320911D9695879597F90895E1E0660F771FCB
S1131330881FBB1F621773078407BA0720F0621B5C
S1131340730B840BBA0BEE1F88F7E0950895E894AD
S113135009C097FB3EF490958095709561957F4FF9
S11313608F4F9F4F9923A9F0F92F96E9BB279395A7
S1131370F695879577956795B795F111F8CFFAF4B7
S1131380BB0F11F460FF1BC06F5F7F4F8F4F9F4FE8
S113139016C0882311F096E911C0772321F09EE846
S11313A0872F762F05C0662371F096E8862F70E0AC
S11313B060E02AF09A95660F771F881FDAF7880F86
S11313C09695879597F90895990F0008550FAA0BDC
S11313D0E0E8FEEF16161706E807F907C0F0121644
S11313E01306E407F50798F0621B730B840B950B47
S11313F039F40A2661F0232B242B252B21F408959C
S11314000A2609F4A140A6958FEF811D811D089538
S113141097F99F6780E870E060E008959FEF80ECA3
S1131420089500240A941616170618060906089546
S113143000240A9412161306140605060895092EAC
S11314400394000C11F4882352F0BB0F40F4BF2B1B
S113145011F460FF04C06F5F7F4F8F4F9F4F08955B
S113146057FD9058440F551F59F05F3F71F0479551
S1131470880F97FB991F61F09F3F79F08795089536
S1131480121613061406551FF2CF4695F1DF08C055
S1131490161617061806991FF1CF86957105610572
S11314A008940895E894BB2766277727CB0197F91A
S11314B008950E94E40908F48FEF08950E94710AC8
S11314C00C941F0A0E94110A38F00E94180A20F096
S11314D0952311F00C94080A0C940E0A11240C9410
S11314E0530A0E94300A70F3959FC1F3950F50E0A0
S11314F0551F629FF001729FBB27F00DB11D639FC2
S1131500AA27F00DB11DAA1F649F6627B00DA11D67
S1131510661F829F2227B00DA11D621F739FB00D0D
S1131520A11D621F839FA00D611D221F749F33277D
S1131530A00D611D231F849F600D211D822F762F16
S11315406A2F11249F5750409AF0F1F088234AF0F3
S1131550EE0FFF1FBB1F661F771F881F915050405F
S1131560A9F79E3F510580F00C94080A0C94530A85
S11315705F3FE4F3983ED4F3869577956795B795E6
S1131580F795E7959F5FC1F7FE2B880F911D969500
S1131590879597F90895EE0FFF1F0590F491E02DBC
S11315A00994EF920F931F93CF93DF93E80147FDC4
S11315B002C034E001C034E1042E000C550B57FF87
S11315C003C0519541955109E32E022F242FAE01FA
S11315D00E94F10ACE01DF91CF911F910F91EF90FC
S11315E00895A9E0B0E0E7EFFAE00C94290D6A0150
S11315F0122FB02E2BE3201720F0FF24F394F00ECB
S113160002C02CE3F22E0F2D27E0AE014F5F5F4F97
S11316100E944B0CBC014981842F8970813031F0C8
S1131620E1FC06C0E0FE06C090E205C09DE203C0F6
S11316309BE201C090E05E2D507143FF3CC09111CC
S113164002C083E001C084E0811718F4212F281B15
S113165001C020E051110BC0F601822F30E2882333
S113166019F031938150FBCFC20ED11C20E0992395
S113167029F0D6019C93F60131966F01C6010396B9
S1131680E2FE0AC03EE4D6013C9341E411964C9339
S1131690119712963C9306C03EE6F601308341E66C
S11316A041833283FC01322F40E2332309F442C0E8
S11316B041933150FACF42FF44C0911102C083E0FC
S11316C001C084E0811718F4212F281B01C020E0F9
S11316D051110BC0F601822F30E2882319F03193A7
S11316E08150FBCFC20ED11C20E0992329F0D601F2
S11316F09C93F60131966F01C6010396E2FE0BC07E
S113170039E4D6013C933EE411963C93119736E4B8
S113171012963C9307C039E6F60130833EE63183E6
S113172036E63283FC01322F40E2332319F0419331
S11317303150FBCFFC01E20FF11D10828EEF9FEFC1
S1131740A6C021E030E0911102C020E030E016167E
S113175017061CF4FB01319602C0E1E0F0E02E0F05
S11317603F1FBB2021F0EB2DF0E0319602C0E0E0FA
S1131770F0E02E0F3F1FE12FF0E02E173F071CF47F
S1131780121B212F01C020E08E2D887159F4F6011F
S1131790822F30E2882319F031938150FBCFC20E9F
S11317A0D11C20E0992329F0D6019C93F6013196AF
S11317B06F0151110BC0F601822F90E3882319F0B9
S11317C091938150FBCFC20ED11C20E00F2D060F48
S11317D09A81342F307144FF03C0913309F40150CE
S11317E0101624F4093018F008E001C001E0AB0140
S11317F077FF02C040E050E0FB01E41BF50BA1E0E1
S1131800B0E0AC0FBD1FEA0FFB1F8EE2A82E4B0108
S1131810801A91080B2D10E01195019511094F3F85
S1131820BFEF5B0721F4D601AC9211966D016417EA
S113183075072CF08416950614F4818101C080E3A9
S1131840415051093196D60111967D014017510737
S113185024F0D6018C936701E2CF6417750739F43D
S1131860963320F4953319F4311101C081E3F60164
S11318708083F701822F90E2882319F0919381509D
S1131880FBCFF701E20FF11D108280E090E0299672
S1131890ECE00C94450D283008F027E03327DA01FA
S11318A0990F311D87FD916000966105710539F42A
S11318B032602E5F3D9330E32A95E1F708959F3F10
S11318C030F080387105610509F03C5F3C5F3D9361
S11318D0913008F08068911DDF93CF931F930F938D
S11318E0FF92EF92192F987F9695E92F96959695EA
S11318F0E90FFF27E652FF4F99273327EE24FF24F1
S1131900A701E70105900894079428F4360FE71E11
S1131910F81E491F511D660F771F881F991F0694D3
S1131920A1F70590079428F4E70EF81E491F561FE7
S1131930C11D770F881F991F661F0694A1F7059094
S1131940079428F4F80E491F561FC71FD11D880F8E
S1131950991F661F771F0694A1F70590079420F43A
S1131960490F561FC71FD81F990F661F771F881F5F
S11319700694A9F784911095177041F0D695C795F0
S113198057954795F794E7941A95C1F7E0E8F0E086
S113199068941590159135916591959105907FE224
S11319A07395E118F10A430B560BC90BD009C0F724
S11319B0E10CF11E431F561FC91FD01D7EF4703366
S11319C011F48A95E6CFE894015030F0080F0AF438
S11319D00027021708F4202F2395022F7A3328F0CA
S11319E079E37D932A95E9F710C07D932A9589F6CA
S11319F0069497956795379517951794E118F10A0A
S1131A00430B560BC90BD00998F023957E9173951F
S1131A107A3308F070E37C932013B8F77E917061F9
S1131A207D9330F0839571E37D9370E32A95E1F71C
S1131A301124EF90FF900F911F91CF91DF9199277F
S1131A4087FD909508952F923F924F925F926F92E7
S1131A507F928F929F92AF92BF92CF92DF92EF923A
S1131A60FF920F931F93CF93DF93CDB7DEB7CA1BBB
S1131A70DB0B0FB6F894DEBF0FBECDBF09942A88E6
S1131A80398848885F846E847D848C849B84AA848E
S1131A90B984C884DF80EE80FD800C811B81AA811B
S1131AA0B981CE0FD11D0FB6F894DEBF0FBECDBFE6
S10B1AB0ED010895F894FFCF45
S1131AB800407C1211127C00007F4141221C00006E
S1131AC83E4141412200003E5149453E0000141464
S1131AD8141414000080804060F860408056696ED9
S1131AE8203E205672656600494E543000494E54D3
S1131AF831004854545420000038545454180000F9
S1131B08384444442000000060600000000649494D
S1131B18291E003649494936000171090503003C6C
S1131B284A494930002745454539001814127F10A1
S1131B38002141454B310042615149460000427F32
S1131B484000003E5149453E001F2040201F000030
S9030518DF
