:100000000C9440000C945D000C945D000C945D0019
:100010000C945D000C945D000C945D000C945D00EC
:100020000C945D000C945D000C945D000C944903ED
:100030000C945D000C945D000C945D000C945D00CC
:100040000C942C030C945D000C945B030C945D00E9
:100050000C945D000C945D000C945D000C945D00AC
:100060000C945D000C945D00B102B4022F023C02BE
:1000700049025602630270027D028A029702A402BC
:1000800011241FBECFEFD8E0DEBFCDBF11E0A0E04E
:10009000B1E0E2EEF8E002C005900D92A039B107A0
:1000A000D9F721E0A0E9B1E001C01D92A13AB20761
:1000B000E1F70E94EC000C946F040C940000109285
:1000C000B90084E18093B80084E08093BC00089577
:1000D00084EA8093BC008091BC008823E4F70895F3
:1000E00084E98093BC008FE99FE00197F1F700C09D
:1000F000000008958093BB0084EC8093BC00809145
:10010000BC008823E4F708950E94680080E70E94FD
:100110007A008FEF0E947A002FEF89EF90E0215054
:1001200080409040E1F700C0000084E30E947A0024
:1001300080E30E947A008FE39CE90197F1F700C009
:10014000000084E30E947A0080E30E947A008FE935
:100150009FE00197F1F700C0000084E30E947A005D
:1001600080E30E947A008FE99FE00197F1F700C0D9
:10017000000084E20E947A0080E20E947A008FE907
:100180009FE00197F1F700C000000E947000089501
:100190009C0195B5936095BDE1EBF0E09081936093
:1001A00090832130310529F484B5836884BD67BD0F
:1001B00008952230310529F484B5836284BD68BD79
:1001C00008952330310539F4E0EBF0E0808183625B
:1001D00080836093B40008950E94FC000E945F0039
:1001E0000E9423010E94B6028FEC90E00E9453040B
:1001F0000E94D5027894FFCF8FEF84B988E68AB940
:1002000087B117B888B1816088B90895CF93C82F96
:100210000E94680088E70E947A0080E00E947A00CD
:100220008C2F0E947A000E9470008FE39FE101975B
:10023000F1F700C000008FE39FE10197F1F700C0E4
:100240000000CF9108950E945F000E9484008EEA12
:100250000E94060184ED0E94060180E80E940601CA
:1002600088EA0E9406018FE30E94060183ED0E9446
:10027000060180E00E94060180E40E9406018DE8EC
:100280000E94060184E10E94060181EA0E940601A3
:1002900088EC0E9406018AED0E94060182E10E941C
:1002A000060181E80E9406018FE00E94060189EDA7
:1002B0000E94060181EF0E9406018BED0E9406015B
:1002C00080E40E94060184EA0E94060186EA0E94F8
:1002D00006018FEA0E9406010895CF93C82F0E945D
:1002E000680088E70E947A0080E40E947A008C2FE0
:1002F0000E947A000E9470008FE39FE10197F1F75E
:1003000000C000008FE39FE10197F1F700C00000FB
:10031000CF910895CF93DF9321E0883008F020E05B
:1003200091E06F3708F090E09223E1F0D62FC82FCC
:1003300081E20E9406018D2F0E9406018FE70E9434
:10034000060182E20E9406018C2F0E94060187E0CE
:100350000E9406010E94680088E70E947A0080E4FB
:100360000E947A00DF91CF910895CF93C82F411555
:100370005105F9F4613041F469E182E00E948A019B
:1003800080E00E946D0156C0623041F466E283E075
:100390000E948A0180E00E946D014CC0633009F028
:1003A00049C060E284E00E948A0180E00E946D0101
:1003B00041C041305105F1F4613041F46FE182E018
:1003C0000E948A0180E00E946D0134C0623041F4D5
:1003D0006CE283E00E948A0180E00E946D012AC0E5
:1003E000633041F566E284E00E948A0180E00E9469
:1003F0006D0120C042305105E9F4613041F465E2FD
:1004000082E00E948A0180E00E946D0113C0623088
:1004100041F462E383E00E948A0180E00E946D0162
:1004200009C0633039F46CE284E00E948A0180E004
:100430000E946D018C2F90E0FC01BE97EC30F1051D
:1004400008F092C0EC5CFF4F0C946904EC2FF0E0D4
:10045000E657FE4F80810E946D01CF5F01C0C0E072
:10046000C630A0F381C0EC2FF0E0EC57FE4F808146
:100470000E946D01CF5F01C0C0E0C630A0F374C020
:10048000EC2FF0E0E258FE4F80810E946D01CF5FBB
:1004900001C0C0E0C630A0F367C0EC2FF0E0E85820
:1004A000FE4F80810E946D01CF5F01C0C0E0C63069
:1004B000A0F35AC0EC2FF0E0EE58FE4F80810E946E
:1004C0006D01CF5F01C0C0E0C630A0F34DC0EC2F7E
:1004D000F0E0E459FE4F80810E946D01CF5F01C0C2
:1004E000C0E0C630A0F340C0EC2FF0E0EA59FE4F68
:1004F00080810E946D01CF5F01C0C0E0C630A0F3D3
:1005000033C0EC2FF0E0E05AFE4F80810E946D0175
:10051000CF5F01C0C0E0C630A0F326C0EC2FF0E0F2
:10052000E65AFE4F80810E946D01CF5F01C0C0E09E
:10053000C630A0F319C0EC2FF0E0EC5AFE4F8081DA
:100540000E946D01CF5F01C0C0E0C630A0F30CC0B7
:10055000EC2FF0E0E25BFE4F80810E946D01CF5FE7
:1005600001C0C0E0C630A0F3CF9108950F931F9350
:10057000CF93DF9300E010E010C060E0802F0E9476
:100580008A01C0E0D0E004C080E00E946D012196A5
:10059000C038D105CCF30F5F1F4F083011056CF345
:1005A000DF91CF911F910F910895CF9360E082E08A
:1005B0000E948A01C0E008C0EC2FF0E0EC5DFE4F25
:1005C00080810E946D01CF5FC231B0F3C0E008C0EE
:1005D000EC2FF0E0E050FF4F80810E946D01CF5F73
:1005E000C630B0F360E083E00E948A01C0E008C03A
:1005F000EC2FF0E0EA5FFE4F80810E946D01CF5F3B
:10060000CE31B0F3C0E008C0EC2FF0E0E050FF4F77
:1006100080810E946D01CF5FC630B0F360E084E05E
:100620000E948A01C0E008C0EC2FF0E0EA5CFE4FB7
:1006300080810E946D01CF5FC831B0F3C0E008C077
:10064000EC2FF0E0E050FF4F80810E946D01CF5F02
:10065000C630B0F3CF9108951F920F920FB60F924C
:1006600011248F939F93809194018F5F80939401C5
:10067000809194018D3730F095B180E2892785B95A
:10068000109294019F918F910F900FBE0F901F9029
:1006900018951F920F920FB60F9211248F939F936C
:1006A00095B180E2892785B99F918F910F900FBEF8
:1006B0000F901F9018951F920F920FB60F92112452
:1006C0002F933F934F935F936F937F938F939F935A
:1006D000AF93BF93EF93FF938091C60080939801EF
:1006E00080919801873461F0823519F08234A9F441
:1006F0000EC081E090E090939301809392010DC031
:1007000082E090E0909393018093920106C083E091
:1007100090E09093930180939201809198018033AF
:1007200008F4A6C0809198018A3308F0A1C0809196
:10073000900190919101892BF9F480919801809317
:10074000A0014091900150919101609192017091AE
:1007500093018091A0010E94B5018091A00190E0D9
:10076000C09790939C0180939B0181E090E09093CF
:1007700091018093900186C08091900190919101A8
:100780000197F9F48091980180939701409190012D
:100790005091910160919201709193018091970124
:1007A0000E94B5018091970190E0C09790939A01C3
:1007B0008093990182E090E0909391018093900161
:1007C00061C08091900190919101029709F05AC007
:1007D0008091980180939F0180919F0190E0C09744
:1007E00090939601809395014091900150919101D1
:1007F000609192017091930180919F010E94B501D7
:100800008091990190919A019C01220F331F880FCA
:10081000991F880F991F880F991F820F931F20918E
:100820009B0130919C01820F931F40919501509143
:10083000960164E6649F9001659F300D1124820F3C
:10084000931F90939E0180939D0160919D017091F3
:100850009E0180919201909193010E94C800109294
:1008600091011092900110929301109292010AC08E
:10087000809198018A3520F080919801813A10F09A
:1008800080919801FF91EF91BF91AF919F918F91CE
:100890007F916F915F914F913F912F910F900FBE7C
:1008A0000F901F901895E2ECF0E020812F732083C9
:1008B00022E02093C0009093C5008093C40086E09E
:1008C0008083E1ECF0E088E1808380818068808330
:1008D0000895EE0FFF1F0590F491E02D0994F89410
:0208E000FFCF48
:1008E2001414141414003E4149497A007F0919294D
:1008F20046007F49494941007F49494941007F04F7
:1009020008107F007F09192946007F4949494100A3
:100912007F4141221C007F49494936007F404040C7
:1009220040003F4040403F007F494949410000604C
:1009320060000000064949291E003649494936002F
:100942000171090503003C4A4949300027454545E4
:1009520039001814127F10002141454B31004261C9
:100962005149460000427F4000003E5149453E0049
:04000003000000D029
:00000001FF
