S012000073646B5F6174333238702E737265638F
S11300000C9453000C9470000C9470000C947000C9
S11300100C9470000C9470000C9470000C9470009C
S11300200C9470000C9470000C9470000C94C00438
S11300300C9470000C9470000C9470000C9470007C
S11300400C94A3040C9470000C94D2040C947000CF
S11300500C9470000C9470000C9470000C9470005C
S11300600C9470000C947000D602D9025402610200
S11300706E027B0288029502A202AF02BC02C90290
S113008019032B0307034F033D0361037303970411
S11300909A04150422042F043C04490456046304FE
S11300A070047D048A0411241FBECFEFD8E0DEBFA4
S11300B0CDBF12E0A0E0B1E0E8E5F1E102C00590B7
S11300C00D92A632B107D9F722E0A6E2B2E001C050
S11300D01D92A334B207E1F70E9411010C94AA08FF
S11300E00C9400001092B90084E18093B80084E07D
S11300F08093BC00089584EA8093BC008091BC0086
S11301008823E4F7089584E98093BC008FE99FE095
S11301100197F1F700C0000008958093BB0084ECC0
S11301208093BC008091BC008823E4F708950E946A
S11301307B0080E70E948D008FEF0E948D002FEFDF
S113014089EF90E0215080409040E1F700C000002A
S113015084E30E948D0080E30E948D008FE39CE97C
S11301600197F1F700C0000084E30E948D0080E352
S11301700E948D008FE99FE00197F1F700C0000015
S113018084E30E948D0080E30E948D008FE99FE04C
S11301900197F1F700C0000084E20E948D0080E224
S11301A00E948D008FE99FE00197F1F700C00000E5
S11301B00E94830008959C0195B5936095BDE1EB81
S11301C0F0E09081936090832130310559F484B537
S11301D0836884BD6F3F710519F014F06FEF70E010
S11301E067BD08952230310559F484B5836284BD16
S11301F06F3F710519F014F06FEF70E068BD08955A
S11302002330310569F4E0EBF0E080818362808380
S11302106F3F710519F014F06FEF70E06093B40054
S113022008950E9421010E9472000E9448010E94C8
S1130230DB028FEC90E00E948E080E948403789485
S1130240FFCF8FEF84B988E68AB987B117B888B130
S1130250816088B90895CF93C82F0E947B0088E7F6
S11302600E948D0080E00E948D008C2F0E948D00E2
S11302700E9483008FE39FE10197F1F700C0000023
S11302808FE39FE10197F1F700C00000CF9108953B
S11302900E9472000E9497008EEA0E942B0184ED56
S11302A00E942B0180E80E942B0188EA0E942B0106
S11302B08FE30E942B0183ED0E942B0180E00E94BA
S11302C02B0180E40E942B018DE80E942B0184E124
S11302D00E942B0181EA0E942B0188EC0E942B01D1
S11302E08AED0E942B0182E10E942B0181E80E9489
S11302F02B018FE00E942B0189ED0E942B0181EFDD
S11303000E942B018BED0E942B0180E40E942B01A3
S113031084EA0E942B0186EA0E942B018FEA0E9444
S11303202B010895CF93C82F0E947B0088E70E9479
S11303308D0080E40E948D008C2F0E948D000E940D
S113034083008FE39FE10197F1F700C000008FE382
S11303509FE10197F1F700C00000CF910895CF937A
S1130360DF9321E0883008F020E091E06F3708F057
S113037090E09223E1F0D62FC82F81E20E942B0156
S11303808D2F0E942B018FE70E942B0182E20E9495
S11303902B018C2F0E942B0187E00E942B010E94CD
S11303A07B0088E70E948D0080E40E948D00DF912D
S11303B0CF910895CF93C82F41155105F9F46130B9
S11303C041F469E182E00E94AF0180E00E94920161
S11303D056C0623041F466E283E00E94AF0180E0DF
S11303E00E9492014CC0633009F049C060E284E08D
S11303F00E94AF0180E00E94920141C0413051054A
S1130400F1F4613041F46FE182E00E94AF0180E0D9
S11304100E94920134C0623041F46CE283E00E9495
S1130420AF0180E00E9492012AC0633041F566E288
S113043084E00E94AF0180E00E94920120C042301B
S11304405105E9F4613041F465E282E00E94AF01B4
S113045080E00E94920113C0623041F462E383E0C1
S11304600E94AF0180E00E94920109C0633039F418
S11304706CE284E00E94AF0180E00E9492018C2F24
S113048090E0FC01BE97EC30F10508F092C0EC5C02
S1130490FF4F0C94A408EC2FF0E0E450FE4F808151
S11304A00E949201CF5F01C0C0E0C630A0F381C0BA
S11304B0EC2FF0E0EA50FE4F80810E949201CF5F62
S11304C001C0C0E0C630A0F374C0EC2FF0E0E051EE
S11304D0FE4F80810E949201CF5F01C0C0E0C63010
S11304E0A0F367C0EC2FF0E0E651FE4F80810E943C
S11304F09201CF5F01C0C0E0C630A0F35AC0EC2F18
S1130500F0E0EC51FE4F80810E949201CF5F01C068
S1130510C0E0C630A0F34DC0EC2FF0E0E252FE4F35
S113052080810E949201CF5F01C0C0E0C630A0F379
S113053040C0EC2FF0E0E852FE4F80810E9492010F
S1130540CF5F01C0C0E0C630A0F333C0EC2FF0E0B1
S1130550EE52FE4F80810E949201CF5F01C0C0E045
S1130560C630A0F326C0EC2FF0E0E453FE4F8081A8
S11305700E949201CF5F01C0C0E0C630A0F319C051
S1130580EC2FF0E0EA53FE4F80810E949201CF5F8E
S113059001C0C0E0C630A0F30CC0EC2FF0E0E05482
S11305A0FE4F80810E949201CF5F01C0C0E0C6303F
S11305B0A0F3CF9108950F931F93CF93DF9300E09F
S11305C010E010C060E0802F0E94AF01C0E0D0E0D6
S11305D004C080E00E9492012196C038D105CCF37A
S11305E00F5F1F4F083011056CF3DF91CF911F91FE
S11305F00F910895CF93DF9390E0FC013197E7309A
S1130600F10508F07EC0E05CFF4F0C94A40860E0A4
S113061086E00E94AF01C0E0D0E007C0FE01E855CB
S1130620FE4F80810E9492012196CE31D105B4F310
S113063068C060E086E00E94AF01C0E0D0E007C07F
S1130640FE01EA56FE4F80810E9492012196C2313A
S1130650D105B4F356C060E086E00E94AF01C0E06B
S1130660D0E007C0FE01E858FE4F80810E9492014D
S11306702196CE31D105B4F344C060E086E00E94F7
S1130680AF01C0E0D0E007C0FE01EC5AFE4F80810C
S11306900E9492012196C432D105B4F332C060E0C5
S11306A086E00E94AF01C0E0D0E007C0FE01E05D3B
S11306B0FE4F80810E9492012196C432D105B4F389
S11306C020C060E086E00E94AF01C0E0D0E007C037
S11306D0FE01EA5FFE4F80810E9492012196CA3298
S11306E0D105B4F30EC060E086E00E94AF01C0E023
S11306F0D0E004C080E00E9492012196CA32D10564
S1130700CCF3DF91CF910895CF9360E082E00E9413
S1130710AF01C0E008C0EC2FF0E0EA56FE4F808144
S11307200E949201CF5FC231B0F3C0E008C0EC2F49
S1130730F0E0E050FF4F80810E949201CF5FC6300D
S1130740B0F360E083E00E94AF01C0E008C0EC2F8A
S1130750F0E0E858FE4F80810E949201CF5FCE31D5
S1130760B0F3C0E008C0EC2FF0E0E050FF4F808110
S11307700E949201CF5FC630B0F360E084E00E9433
S1130780AF01C0E008C0EC2FF0E0E855FE4F8081D7
S11307900E949201CF5FC831B0F3C0E008C0EC2FD3
S11307A0F0E0E050FF4F80810E949201CF5FC6309D
S11307B0B0F3CF9108950F931F93CF93DF938C01E0
S11307C06130710529F469E182E00E94AF010FC034
S11307D06230710529F466E283E00E94AF0107C02C
S11307E06330710521F460E284E00E94AF0180E08F
S11307F00E949201C0E09FC0F801EC0FF11DE0815E
S11308008E2F90E0FC01BE97EC30F10508F092C009
S1130810E95BFF4F0C94A408ED2FF0E0E450FE4F89
S113082080810E949201DF5F01C0D0E0D630A0F346
S113083081C0ED2FF0E0EA50FE4F80810E949201CA
S1130840DF5F01C0D0E0D630A0F374C0ED2FF0E03C
S1130850E051FE4F80810E949201DF5F01C0D0E031
S1130860D630A0F367C0ED2FF0E0E651FE4F808153
S11308700E949201DF5F01C0D0E0D630A0F35AC0DD
S1130880ED2FF0E0EC51FE4F80810E949201DF5F7A
S113089001C0D0E0D630A0F34DC0ED2FF0E0E2521D
S11308A0FE4F80810E949201DF5F01C0D0E0D6300C
S11308B0A0F340C0ED2FF0E0E852FE4F80810E948B
S11308C09201DF5F01C0D0E0D630A0F333C0ED2F3A
S11308D0F0E0EE52FE4F80810E949201DF5F01C082
S11308E0D0E0D630A0F326C0ED2FF0E0E453FE4F65
S11308F080810E949201DF5F01C0D0E0D630A0F376
S113090019C0ED2FF0E0EA53FE4F80810E9492015E
S1130910DF5F01C0D0E0D630A0F30CC0ED2FF0E0D3
S1130920E054FE4F80810E949201DF5F01C0D0E05D
S1130930D630A0F3CF5FC33008F45ECFDF91CF9100
S11309401F910F9108951F920F920FB60F921124C9
S11309508F939F93809136028F5F809336028091AC
S113096036028D3730F095B180E2892785B910922F
S113097036029F918F910F900FBE0F901F90189584
S11309801F920F920FB60F9211248F939F9395B1DC
S113099080E2892785B99F918F910F900FBE0F90A8
S11309A01F9018951F920F920FB60F9211242F9338
S11309B03F934F935F936F937F938F939F93AF93E3
S11309C0BF93CF93DF93EF93FF938091C6008093FF
S11309D03A0280913A02873461F0823519F0823408
S11309E0A9F40EC081E090E0909335028093340224
S11309F00DC082E090E0909335028093340206C0EB
S1130A0083E090E0909335028093340280913A021F
S1130A10803308F4A9C080913A028A3308F0A4C054
S1130A208091260290912702892BF9F480913A0251
S1130A308093420240912602509127026091340231
S1130A4070913502809142020E94DA018091420243
S1130A5090E0C09790933E0280933D0281E090E045
S1130A60909327028093260289C080912602909158
S1130A7027020197F9F480913A0280933902409158
S1130A8026025091270260913402709135028091C0
S1130A9039020E94DA018091390290E0C097909364
S1130AA03C0280933B0282E090E090932702809383
S1130AB0260264C08091260290912702029709F0D1
S1130AC05DC080913A02809341028091410290E09E
S1130AD0C097909338028093370240912602509138
S1130AE027026091340270913502809141020E9484
S1130AF0DA0180913B0290913C029C01220F331F4A
S1130B00880F991F880F991F880F991F820F931FB1
S1130B1020913D0230913E02820F931F4091370293
S1130B205091380264E6649F9001659F300D112452
S1130B30820F931F9093400280933F0260913F0283
S1130B407091400280913402909135020E94DB0042
S1130B50109227021092260210923502109234024B
S1130B6087E00E94FA020AC080913A028A3520F096
S1130B7080913A02813A10F080913A0280913A02CF
S1130B80853469F0823521F0843409F049C014C0F9
S1130B9081E090E0909329028093280241C08091E3
S1130BA02802909129020197D9F582E090E0909370
S1130BB029028093280234C080912802909129024E
S1130BC0029771F510922902109228026FEF70E0DB
S1130BD081E090E00E94DB0060E070E082E090E061
S1130BE00E94DB0060E070E083E090E00E94DB00A4
S1130BF061E070E082E092E00E94DB0362E070E07A
S1130C0086E092E00E94DB0363E070E086E092E01D
S1130C100E94DB0387E00E94FA0281E00E94FA024C
S1130C2080913A02853459F118F4823431F05BC072
S1130C308C3451F08535B1F056C081E090E090934A
S1130C403302809332024FC080913202909133027A
S1130C50019709F048C082E090E0909333028093BA
S1130C60320241C080913202909133020297D9F549
S1130C7083E090E0909333028093320234C08091F9
S1130C80320290913302039771F51092330210925D
S1130C90320260EF70E083E090E00E94DB0060E0ED
S1130CA070E082E090E00E94DB0060E070E081E0B0
S1130CB090E00E94DB0061E070E086E092E00E9438
S1130CC0DB0362E070E086E092E00E94DB0363E015
S1130CD070E08AE092E00E94DB0387E00E94FA025F
S1130CE083E00E94FA0280913A02873449F018F4B2
S1130CF08534D9F062C08E3461F1823541F05DC033
S1130D0081E090E0909331028093300256C080914C
S1130D10300290913102019709F04FC082E090E0D7
S1130D20909331028093300248C0809130029091B8
S1130D303102029739F483E090E09093310280937A
S1130D4030023BC084E090E0909331028093300203
S1130D5034C08091300290913102049771F5109261
S1130D603102109230026CED70E082E090E00E945B
S1130D70DB0060E070E081E090E00E94DB0060E076
S1130D8070E083E090E00E94DB0061E070E086E0C8
S1130D9092E00E94DB0362E070E08EE092E00E9449
S1130DA0DB0363E070E086E092E00E94DB0387E00F
S1130DB00E94FA0282E00E94FA0280913A0280358F
S1130DC049F018F4853441F15BC08235C1F08535B2
S1130DD041F056C081E090E090932D0280932C0264
S1130DE04FC080912C0290912D02019709F048C0C8
S1130DF082E090E090932D0280932C0241C0809178
S1130E002C0290912D020297D9F583E090E0909303
S1130E102D0280932C0234C080912C0290912D02DB
S1130E20039771F510922D0210922C026FEF70E06F
S1130E3081E090E00E94DB0060E070E082E090E0FE
S1130E400E94DB0067ED70E083E090E00E94DB002D
S1130E5061E070E082E092E00E94DB0362E070E017
S1130E6086E092E00E94DB0363E070E082E192E0BE
S1130E700E94DB0387E00E94FA0284E00E94FA02E7
S1130E8080913A028C34F1F018F4853469F068C02A
S1130E90873591F1893509F063C081E090E0909342
S1130EA02F0280932E025CC080912E0290912F021B
S1130EB0019709F055C082E090E090932F0280934F
S1130EC02E024EC080912E0290912F02029739F487
S1130ED083E090E090932F0280932E0241C0809192
S1130EE02E0290912F020397D9F584E090E090931D
S1130EF02F0280932E0234C080912E0290912F02F3
S1130F00049771F510922F0210922E0268EC70E093
S1130F1081E090E00E94DB0066E970E082E090E00E
S1130F200E94DB0060E070E083E090E00E94DB0060
S1130F3061E070E086E192E00E94DB0362E070E031
S1130F408AE192E00E94DB0363E070E086E092E0D5
S1130F500E94DB0387E00E94FA0285E00E94FA0205
S1130F6080913A02853481F018F4833431F05BC007
S1130F708C34C1F0833519F156C081E090E0909330
S1130F802B0280932A024FC080912A0290912B0257
S1130F90019709F048C082E090E090932B0280937F
S1130FA02A0241C080912A0290912B020297D9F51E
S1130FB083E090E090932B0280932A0234C08091C6
S1130FC02A0290912B02039771F510922B02109232
S1130FD02A026BEE70E083E090E00E94DB0063EC99
S1130FE070E082E090E00E94DB0060E070E081E06D
S1130FF090E00E94DB0061E070E086E092E00E94F5
S1131000DB0362E070E08EE192E00E94DB0363E0C8
S113101070E082E292E00E94DB0387E00E94FA0221
S113102086E00E94FA0280913A02863409F063C095
S11310305CC068E270E083E090E00E94DB002FEF88
S113104089E698E1215080409040E1F700C000001B
S11310506FEF70E082E090E00E94DB002FEF89E602
S113106098E1215080409040E1F700C0000064E620
S113107070E081E090E00E94DB002FEF89E698E1C8
S1131080215080409040E1F700C000006FEF70E015
S113109083E090E00E94DB002FEF89E698E1215085
S11310A080409040E1F700C0000064E670E082E018
S11310B090E00E94DB002FEF89E698E12150804008
S11310C09040E1F700C0000064E170E081E090E04E
S11310D00E94DB002FEF89E698E121508040904088
S11310E0E1F700C00000219602C0C0E0D0E0C530A6
S11310F0D1050CF49ECFFF91EF91DF91CF91BF9179
S1131100AF919F918F917F916F915F914F913F919B
S11311102F910F900FBE0F901F901895E2ECF0E006
S113112020812F73208322E02093C0009093C50078
S11311308093C40086E08083E1ECF0E088E1808362
S11311408081806880830895EE0FFF1F0590F491DD
S10B1150E02D0994F894FFCF8F
S11311581414141414003E41414122007F494949A2
S113116841007F40404040007F4949494100464989
S11311784949310001017F0101007F494949410082
S11311887F09090906003F4040403F007F091929AB
S113119846007F09090906007F40404040007F4916
S11311A8494941000708700807007F494949410037
S11311B87F40404040007F40404040003E41414124
S11311C83E003F4038403F003E4149497A007F098C
S11311D8192946007F49494941007F494949410045
S11311E87F0408107F007F09192946007F4949496F
S11311F841007F4141221C007F49494936007F4014
S1131208404040003F4040403F007F494949410039
S1131218006060000000064949291E003649494912
S113122836000171090503003C4A49493000274545
S1131238454539001814127F10002141454B3100EF
S113124842615149460000427F4000003E514945F1
S11312583E0032353500303030003234300032321E
S11312683000323135003230300031353000313918
S10912783500323335009D
S90300F606
