:100000000C94BD000C94E9010C941E020C94DA00CF
:100010000C94DA000C94DA000C94DA000C94DA00F8
:100020000C94DA000C94DA000C94DA000C94DA00E8
:100030000C94DA000C94DA000C94DA000C94DA00D8
:100040000C94DA000C94DA000C9441070C94DA005A
:100050000C94DA000C94DC000C94DA000C94AD01E2
:100060000C94DA000C94DA000E0611068C05990542
:10007000A605B305C005CD05DA05E705F4050106BB
:1000800000407A10F35A00A0724E18090010A5D44F
:10009000E80000E87648170000E40B54020000CAAC
:1000A0009A3B000000E1F5050000809698000000F2
:1000B00040420F000000A086010000001027000051
:1000C0000000E803000000006400000000000A00D7
:1000D000000000000100000000002C76D888DC67DA
:1000E0004F0823DFC1DFAE59E1B1B796E5E3E45332
:1000F000C63AE651997696E8E6C28426EB898C9B4F
:1001000062ED407C6FFCEFBC9C9F40F2BAA56FA5EE
:10011000F490055A2AF75C936B6CF9676DC11BFC70
:10012000E0E40D47FEF520E6B500D0ED902E03008B
:10013000943577050080841E080000204E0A0000D8
:1001400000C80C333333330F986E12831141EF8D97
:100150002114893BE65516CFFEE6DB18D1844B38D7
:100160001BF77C1D901DA4BBE424203284725E2208
:100170008100C9F124ECA1E53D2711241FBECFEF7A
:10018000D8E0DEBFCDBF11E0A0E0B1E0EAE3F7E1E7
:1001900002C005900D92AE3BB107D9F721E0AEEB5E
:1001A000B1E001C01D92A13CB207E1F70E944C03EF
:1001B0000C949B0B0C9400001F920F920FB60F92A1
:1001C0001124CF92DF92EF92FF920F931F932F9300
:1001D0003F934F935F936F937F938F939F93AF93CF
:1001E000BF93EF93FF93CF93DF93CDB7DEB72A97FB
:1001F000DEBFCDBF809178006091790070E0762FEE
:100200006627680F711D80E090E00E94E80720E0FB
:1002100030E040EA50E40E949F0820E030EC4FE7D5
:1002200054E40E9476076B017C018E010F5F1F4F23
:1002300022E041E00E94120980917C00813499F013
:10024000823409F1803471F561E0C8010E944F05E4
:100250004091BF0121E0C701B6010E94490681E437
:1002600080937C001FC062E0CE0101960E944F0582
:100270004091010122E0C701B6010E94490682E4D3
:1002800080937C000FC063E0CE0101960E944F0571
:100290004091000123E0C701B6010E94490680E4B5
:1002A00080937C008091BE01803569F481E00E94DA
:1002B00026061092BE011092BF018FEF80930101BC
:1002C0008EEF809300018091BF018F5F8093BF010B
:1002D000809101018F5F80930101809100018F5F08
:1002E000809300018091BE018F5F8093BE01EAE799
:1002F000F0E08081806480832A960FB6F894DEBF98
:100300000FBECDBFDF91CF91FF91EF91BF91AF9124
:100310009F918F917F916F915F914F913F912F911D
:100320001F910F91FF90EF90DF90CF900F900FBE35
:100330000F901F901895EAE7F0E080818068808335
:1003400080818460808380E480937C0080818860E9
:10035000808380818064808308951F920F920FB6FE
:100360000F9211242F933F934F935F936F937F933B
:100370008F939F93AF93BF93EF93FF9362E081E0DE
:100380000E9422038BE491E00E9436032FEF83EC5E
:1003900099E0215080409040E1F700C000000E94A9
:1003A0002C03FF91EF91BF91AF919F918F917F911E
:1003B0006F915F914F913F912F910F900FBE0F90D2
:1003C0001F90189580B7836080BF80B7886080BF1A
:1003D00008951F920F920FB60F9211242F933F93FF
:1003E0004F935F936F937F938F939F93AF93BF933D
:1003F000EF93FF9362E081E00E94220386E591E0A3
:100400000E9436032FEF83EC99E02150804090400A
:10041000E1F700C000000E942C03FF91EF91BF9113
:10042000AF919F918F917F916F915F914F913F918C
:100430002F910F900FBE0F901F9018951F920F9243
:100440000FB60F9211242F933F934F935F936F93A7
:100450007F938F939F93AF93BF93EF93FF9362E04C
:1004600081E00E9422038BE591E00E9436032FEF8A
:1004700083EC99E0215080409040E1F700C00000FB
:100480000E942C03FF91EF91BF91AF919F918F91AB
:100490007F916F915F914F913F912F910F900FBE80
:1004A0000F901F901895E9E6F0E080818A608083C4
:1004B0008DB383608DBB08951092B90084E1809361
:1004C000B80084E08093BC00089584EA8093BC0067
:1004D0008091BC008823E4F7089584E98093BC00F0
:1004E0008FE99FE00197F1F700C000000895809325
:1004F000BB0084EC8093BC008091BC008823E4F7AF
:1005000008950E94650280E70E9477028FEF0E94A3
:1005100077022FEF89EF90E0215080409040E1F783
:1005200000C0000084E30E94770280E30E9477020B
:100530008FE39CE90197F1F700C0000084E30E947B
:10054000770280E30E9477028FE99FE00197F1F73D
:1005500000C0000084E30E94770280E30E947702DB
:100560008FE99FE00197F1F700C0000084E20E944C
:10057000770280E20E9477028FE99FE00197F1F70E
:1005800000C000000E946D020895CF93DF93C82F32
:100590000E94650280E70E947702DC2FD07F8D2FBA
:1005A0008C600E9477028D2F88600E94770280E124
:1005B000C89FE00111248C2F8C600E9477028C2F41
:1005C0000E9477020E946D028FE39FE10197F1F78D
:1005D00000C000008FE39FE10197F1F700C0000029
:1005E000DF91CF910895CF93DF93C82F0E946502CA
:1005F00080E70E947702DC2FD07F8D2F8D600E94D4
:1006000077028D2F89600E94770280E1C89FE00108
:1006100011248C2F8D600E9477028C2F89600E949C
:1006200077020E946D028FE39FE10197F1F700C00E
:1006300000008FE39FE10197F1F700C00000DF9118
:10064000CF910895E62FF0E0EF5FFE4F9081890F84
:1006500081580E94C502089581E00E94C5028FE37F
:100660009FE10197F1F700C0000008950F931F93D9
:10067000CF93DF938C01C0E0D0E003C00E94F3026F
:100680002196F801EC0FFD1F80818111F7CFDF91DA
:10069000CF911F910F9108950E945E030E945C020A
:1006A0000E9453020E94E2010E9484030E941B07E1
:1006B0000E94C3040E949B017894FFCF8FEF84B9FE
:1006C0008AB11AB88BB18C608BB917B80895CF93E3
:1006D000C82F0E94650288E70E94770280E00E948E
:1006E00077028C2F0E9477020E946D028FE39FE1B8
:1006F0000197F1F700C000008FE39FE10197F1F748
:1007000000C00000CF9108950E945C020E94810207
:100710008EEA0E94670384ED0E94670380E80E94CE
:10072000670388EA0E9467038FE30E94670383EDF3
:100730000E94670380E00E94670380E40E946703D1
:100740008DE80E94670384E10E94670381EA0E94AA
:10075000670388EC0E9467038AED0E94670382E1C9
:100760000E94670381E80E9467038FE00E9467038D
:1007700089ED0E94670381EF0E9467038BED0E9461
:10078000670380E40E94670384EA0E94670386EAA5
:100790000E9467038FEA0E9467030895CF93C82FD2
:1007A0000E94650288E70E94770280E40E94770237
:1007B0008C2F0E9477020E946D028FE39FE10197C8
:1007C000F1F700C000008FE39FE10197F1F700C04F
:1007D0000000CF910895CF93DF9321E0883008F097
:1007E00020E091E06F3708F090E09223E1F0D62FFF
:1007F000C82F81E20E9467038D2F0E9467038FE755
:100800000E94670382E20E9467038C2F0E946703A5
:1008100087E00E9467030E94650288E70E947702D2
:1008200080E40E947702DF91CF9108950F931F9388
:10083000CF93DF93CDB7DEB7EF970FB6F894DEBF57
:100840000FBECDBF85E1E4E0F1E0DE01119601903D
:100850000D928A95E1F78EE0E9E1F1E0DE0156962E
:1008600001900D928A95E1F78EE0E7E2F1E0DE017A
:10087000949601900D928A95E1F78EE0E5E3F1E020
:10088000DE01D29601900D928A95E1F76CE380E04B
:100890000E94EB0300E010E00BC0E1E0F0E0EC0FA1
:1008A000FD1FE00FF11F80810E94CE030F5F1F4FDD
:1008B0000531110594F300E010E00BC0E6E1F0E033
:1008C000EC0FFD1FE00FF11F80810E94CE030F5F30
:1008D0001F4F0E30110594F36CE381E00E94EB038F
:1008E00000E010E00BC0E1E0F0E0EC0FFD1FE00FD6
:1008F000F11F80810E94CE030F5F1F4F053111054C
:1009000094F300E010E00BC0E4E2F0E0EC0FFD1F18
:10091000E00FF11F80810E94CE030F5F1F4F0E304A
:10092000110594F36CE382E00E94EB0300E010E019
:100930000BC0E1E0F0E0EC0FFD1FE00FF11F808144
:100940000E94CE030F5F1F4F0531110594F300E0A5
:1009500010E00BC0E2E3F0E0EC0FFD1FE00FF11F31
:1009600080810E94CE030F5F1F4F0E30110594F35C
:10097000EF960FB6F894DEBF0FBECDBFDF91CF91DB
:100980001F910F910895FF920F931F93CF93DF93C1
:10099000CDB7DEB728970FB6F894DEBF0FBECDBF38
:1009A00088E0E3E4F1E0DE01119601900D928A9572
:1009B000E1F760E080E00E94EB0300E010E008C097
:1009C000F801E954FE4F80810E94CE030F5F1F4F54
:1009D00005311105ACF36AE080E00E94EB0300E012
:1009E00010E00BC0E1E0F0E0EC0FFD1FE00FF11FA5
:1009F00080810E94CE030F5F1F4F0830110594F3D2
:100A0000FF24F39410C06DE08F2D0E94EB0300E0F3
:100A100010E005C08FEF0E94CE030F5F1F4F023022
:100A20001105C4F3F39487E08F1568F701E010E037
:100A300005C080E40E94CE030F5F1F4F0A351105E9
:100A4000C4F388E40E94CE0380E70E94CE0380EEC8
:100A50000E94CE0380E40E94CE0380E00E94CE0379
:100A600080E00E94CE0300E010E008C0F801E05AE8
:100A7000FE4F80810E94CE030F5F1F4F053111058D
:100A8000ACF30E94160428960FB6F894DEBF0FBE92
:100A9000CDBFDF91CF911F910F91FF9008950F93DC
:100AA0001F93CF93DF938C01613041F46FE580E0B9
:100AB0000E94EB0380E00E94CE0313C0623041F439
:100AC0006FE581E00E94EB0380E00E94CE0309C045
:100AD000633039F46FE582E00E94EB0380E00E940E
:100AE000CE03C0E09FC0F801EC0FF11DE0818E2F16
:100AF00090E0FC01BE97EC30F10508F092C0EC5C90
:100B0000FF4F0C940C09ED2FF0E0EF54FE4F808165
:100B10000E94CE03DF5F01C0D0E0D630A0F381C0D9
:100B2000ED2FF0E0E555FE4F80810E94CE03DF5FA0
:100B300001C0D0E0D630A0F374C0ED2FF0E0EB554B
:100B4000FE4F80810E94CE03DF5F01C0D0E0D6302F
:100B5000A0F367C0ED2FF0E0E156FE4F80810E94C8
:100B6000CE03DF5F01C0D0E0D630A0F35AC0ED2F36
:100B7000F0E0E756FE4F80810E94CE03DF5F01C0A8
:100B8000D0E0D630A0F34DC0ED2FF0E0ED56FE4F93
:100B900080810E94CE03DF5F01C0D0E0D630A0F399
:100BA00040C0ED2FF0E0E357FE4F80810E94CE035E
:100BB000DF5F01C0D0E0D630A0F333C0ED2FF0E00E
:100BC000E957FE4F80810E94CE03DF5F01C0D0E075
:100BD000D630A0F326C0ED2FF0E0EF57FE4F808116
:100BE0000E94CE03DF5F01C0D0E0D630A0F319C071
:100BF000ED2FF0E0E558FE4F80810E94CE03DF5FCD
:100C000001C0D0E0D630A0F30CC0ED2FF0E0EB58DF
:100C1000FE4F80810E94CE03DF5F01C0D0E0D6305E
:100C2000A0F3CF5FC43008F45ECFC0E008C0EC2F63
:100C3000F0E0E954FE4F80810E94CE03CF5FC630C2
:100C4000B0F3DF91CF911F910F9108950F931F93F0
:100C5000CF93DF938130C1F412C06FE086E0801B38
:100C60000E94EB03C0E0D0E004C080E00E94CE030D
:100C70002196CA35D105CCF30F5F1F4F02C000E0AB
:100C800010E0033011054CF3DF91CF911F910F91CC
:100C90000895CF92DF92EF92FF926B017C016FE09B
:100CA000640F83E0820F0E94EB0380E00E94CE037A
:100CB00020E030E0A901C701B6010E949A08181689
:100CC00074F42AE939E949E15FE3C701B6010E94FA
:100CD0007107882324F480E80E94CE03A7C02AE984
:100CE00039E949E15FE3C701B6010E949A08181685
:100CF00074F42AE939E949E95FE3C701B6010E94C2
:100D00007107882324F480E40E94CE038FC02AE96F
:100D100039E949E95FE3C701B6010E949A0818164C
:100D200074F426E636E646EE5FE3C701B6010E949C
:100D30007107882324F480E20E94CE0377C026E660
:100D400036E646EE5FE3C701B6010E949A08181620
:100D500074F420E030E040E250E4C701B6010E94A4
:100D60007107882324F480E10E94CE035FC020E055
:100D700030E040E250E4C701B6010E949A0818161C
:100D800074F426E636E646E450E4C701B6010E9454
:100D90007107882324F488E00E94CE0347C026E62A
:100DA00036E646E450E4C701B6010E949A081816D8
:100DB00074F42DEC3CEC4CE650E4C701B6010E9403
:100DC0007107882324F484E00E94CE032FC02DEC09
:100DD0003CEC4CE650E4C701B6010E949A08181694
:100DE00074F42AE939E949E850E4C701B6010E94E0
:100DF0007107882324F482E00E94CE0317C020E00C
:100E000030E040E850E4C701B6010E949A08181685
:100E10006CF420E030E040EC50E4C701B6010E94E1
:100E2000710788231CF481E00E94CE03FF90EF90AD
:100E3000DF90CF9008950F931F93CF93DF9300E03F
:100E400010E010C060E0802F0E94EB03C0E0D0E013
:100E500004C080E00E94CE032196C038D105CCF3B7
:100E60000F5F1F4F083011056CF3DF91CF911F9179
:100E70000F9108959091C00095FFFCCF8093C6001C
:100E800008951F920F920FB60F9211242F933F9344
:100E90004F935F936F937F938F939F93AF93BF9382
:100EA000EF93FF938091C6008093C0018DE20E9472
:100EB0003A078EE30E943A078091C0010E943A07E8
:100EC000FF91EF91BF91AF919F918F917F916F9122
:100ED0005F914F913F912F910F900FBE0F901F90F8
:100EE00018950E94250808F481E008950E948A0759
:100EF0000C9460080E94590858F00E94520840F073
:100F000029F45F3F29F00C94490851110C9494087E
:100F10000C944F080E94710868F39923B1F355238C
:100F200091F3951B550BBB27AA27621773078407FC
:100F300038F09F5F5F4F220F331F441FAA1FA9F392
:100F400035D00E2E3AF0E0E832D091505040E69580
:100F5000001CCAF72BD0FE2F29D0660F771F881FE1
:100F6000BB1F261737074807AB07B0E809F0BB0BD4
:100F7000802DBF01FF2793585F4F3AF09E3F5105E8
:100F800078F00C9449080C9494085F3FE4F3983E81
:100F9000D4F3869577956795B795F7959F5FC9F7D1
:100FA000880F911D9695879597F90895E1E0660F52
:100FB000771F881FBB1F621773078407BA0720F0CB
:100FC000621B730B840BBA0BEE1F88F7E095089534
:100FD000E89409C097FB3EF49095809570956195D3
:100FE0007F4F8F4F9F4F9923A9F0F92F96E9BB2789
:100FF0009395F695879577956795B795F111F8CF05
:10100000FAF4BB0F11F460FF1BC06F5F7F4F8F4F6F
:101010009F4F16C0882311F096E911C0772321F065
:101020009EE8872F762F05C0662371F096E8862FFD
:1010300070E060E02AF09A95660F771F881FDAF754
:10104000880F9695879597F90895990F0008550F81
:10105000AA0BE0E8FEEF16161706E807F907C0F03E
:1010600012161306E407F50798F0621B730B840B46
:10107000950B39F40A2661F0232B242B252B21F420
:1010800008950A2609F4A140A6958FEF811D811DC0
:10109000089597F99F6780E870E060E008959FEFFA
:1010A00080EC089500240A941616170618060906FF
:1010B000089500240A9412161306140605060895CE
:1010C000092E0394000C11F4882352F0BB0F40F456
:1010D000BF2B11F460FF04C06F5F7F4F8F4F9F4F96
:1010E000089557FD9058440F551F59F05F3F71F018
:1010F0004795880F97FB991F61F09F3F79F087957F
:101100000895121613061406551FF2CF4695F1DF07
:1011100008C0161617061806991FF1CF8695710597
:10112000610508940895E894BB2766277727CB01CB
:1011300097F908950E94250808F48FEF08950E94FA
:10114000B2080C9460080E94520838F00E945908B6
:1011500020F0952311F00C9449080C944F081124A9
:101160000C9494080E94710870F3959FC1F3950F39
:1011700050E0551F629FF001729FBB27F00DB11D1B
:10118000639FAA27F00DB11DAA1F649F6627B00DAB
:10119000A11D661F829F2227B00DA11D621F739F94
:1011A000B00DA11D621F839FA00D611D221F749FA2
:1011B0003327A00D611D231F849F600D211D822FE9
:1011C000762F6A2F11249F5750409AF0F1F0882310
:1011D0004AF0EE0FFF1FBB1F661F771F881F91503D
:1011E0005040A9F79E3F510580F00C9449080C949B
:1011F00094085F3FE4F3983ED4F38695779567951E
:10120000B795F795E7959F5FC1F7FE2B880F911D66
:101210009695879597F90895EE0FFF1F0590F49125
:10122000E02D0994EF920F931F93CF93DF93E80182
:1012300047FD02C034E001C034E1042E000C550B20
:1012400057FF03C0519541955109E32E022F242FDA
:10125000AE010E943209CE01DF91CF911F910F9113
:10126000EF900895A9E0B0E0E8E3F9E00C946A0B90
:101270006A01122FB02E2BE3201720F0FF24F394E5
:10128000F00E02C02CE3F22E0F2D27E0AE014F5FCF
:101290005F4F0E948C0ABC014981842F8970813084
:1012A00031F0E1FC06C0E0FE06C090E205C09DE220
:1012B00003C09BE201C090E05E2D507143FF3CC033
:1012C000911102C083E001C084E0811718F4212F3E
:1012D000281B01C020E051110BC0F601822F30E223
:1012E000882319F031938150FBCFC20ED11C20E02E
:1012F000992329F0D6019C93F60131966F01C6011E
:101300000396E2FE0AC03EE4D6013C9341E4119606
:101310004C93119712963C9306C03EE6F60130833B
:1013200041E641833283FC01322F40E2332309F44A
:1013300042C041933150FACF42FF44C0911102C0E4
:1013400083E001C084E0811718F4212F281B01C01D
:1013500020E051110BC0F601822F30E2882319F0F2
:1013600031938150FBCFC20ED11C20E0992329F08C
:10137000D6019C93F60131966F01C6010396E2FEF9
:101380000BC039E4D6013C933EE411963C9311978F
:1013900036E412963C9307C039E6F60130833EE608
:1013A000318336E63283FC01322F40E2332319F0D9
:1013B00041933150FBCFFC01E20FF11D10828EEF03
:1013C0009FEFA6C021E030E0911102C020E030E0A4
:1013D000161617061CF4FB01319602C0E1E0F0E09E
:1013E0002E0F3F1FBB2021F0EB2DF0E0319602C005
:1013F000E0E0F0E02E0F3F1FE12FF0E02E173F0757
:101400001CF4121B212F01C020E08E2D887159F48D
:10141000F601822F30E2882319F031938150FBCFFF
:10142000C20ED11C20E0992329F0D6019C93F6012D
:1014300031966F0151110BC0F601822F90E3882382
:1014400019F091938150FBCFC20ED11C20E00F2DDB
:10145000060F9A81342F307144FF03C0913309F491
:101460000150101624F4093018F008E001C001E022
:10147000AB0177FF02C040E050E0FB01E41BF50B3D
:10148000A1E0B0E0AC0FBD1FEA0FFB1F8EE2A82E5B
:101490004B01801A91080B2D10E01195019511094F
:1014A0004F3FBFEF5B0721F4D601AC9211966D015F
:1014B000641775072CF08416950614F4818101C019
:1014C00080E3415051093196D60111967D014017B4
:1014D000510724F0D6018C936701E2CF641775079A
:1014E00039F4963320F4953319F4311101C081E3B6
:1014F000F6018083F701822F90E2882319F09193FF
:101500008150FBCFF701E20FF11D108280E090E0E7
:101510002996ECE00C94860B283008F027E033275E
:10152000DA01990F311D87FD916000966105710503
:1015300039F432602E5F3D9330E32A95E1F7089548
:101540009F3F30F080387105610509F03C5F3C5FDA
:101550003D93913008F08068911DDF93CF931F93E6
:101560000F93FF92EF92192F987F9695E92F9695FA
:101570009695E90FFF27E652FF4F99273327EE2470
:10158000FF24A701E70105900894079428F4360F7B
:10159000E71EF81E491F511D660F771F881F991FF0
:1015A0000694A1F70590079428F4E70EF81E491F4A
:1015B000561FC11D770F881F991F661F0694A1F73C
:1015C0000590079428F4F80E491F561FC71FD11D18
:1015D000880F991F661F771F0694A1F7059007943F
:1015E00020F4490F561FC71FD81F990F661F771F7A
:1015F000881F0694A9F784911095177041F0D6952D
:10160000C79557954795F794E7941A95C1F7E0E881
:10161000F0E068941590159135916591959105903C
:101620007FE27395E118F10A430B560BC90BD00901
:10163000C0F7E10CF11E431F561FC91FD01D7EF4D9
:10164000703311F48A95E6CFE894015030F0080F1A
:101650000AF40027021708F4202F2395022F7A336B
:1016600028F079E37D932A95E9F710C07D932A95B8
:1016700089F6069497956795379517951794E1180D
:10168000F10A430B560BC90BD00998F023957E91B4
:1016900073957A3308F070E37C932013B8F77E914A
:1016A00070617D9330F0839571E37D9370E32A95AB
:1016B000E1F71124EF90FF900F911F91CF91DF91EF
:1016C000992787FD909508952F923F924F925F92B0
:1016D0006F927F928F929F92AF92BF92CF92DF9242
:1016E000EF92FF920F931F93CF93DF93CDB7DEB7A7
:1016F000CA1BDB0B0FB6F894DEBF0FBECDBF09943B
:101700002A88398848885F846E847D848C849B8491
:10171000AA84B984C884DF80EE80FD800C811B819F
:10172000AA81B981CE0FD11D0FB6F894DEBF0FBECE
:0A173000CDBFED010895F894FFCF3E
:10173A00FEFF00407C1211127C00007F4141221CF6
:10174A0000003E4141412200003E5149453E000011
:10175A001414141414000000427F400000001414F2
:10176A001414140000426151494600001414141460
:10177A0014000080804060F860408056696E203E08
:10178A00205672656600494E543000494E54310065
:10179A004854545420000038545454180000384413
:1017AA004444200000006060000000064949291EE8
:1017BA00003649494936000171090503003C4A4986
:1017CA004930002745454539001814127F10002179
:1017DA0041454B310042615149460000427F400079
:0E17EA00003E5149453E001F2040201F0000D8
:04000003000004CA2B
:00000001FF
