:100000000C94BD000C94DA000C94DA000C94DA0025
:100010000C94DA000C94DA000C94DA000C94DA00F8
:100020000C94DA000C94DA000C94DA000C94DA00E8
:100030000C94DA000C94DA000C94DA000C94DA00D8
:100040000C94DA000C94DA000C9449040C94DA0055
:100050000C94DA000C94DC000C94DA000C94DA00B6
:100060000C94DA000C94DA00950398031303200330
:100070002D033A034703540361036E037B03880394
:1000800000407A10F35A00A0724E18090010A5D44F
:10009000E80000E87648170000E40B54020000CAAC
:1000A0009A3B000000E1F5050000809698000000F2
:1000B00040420F000000A086010000001027000051
:1000C0000000E803000000006400000000000A00D7
:1000D000000000000100000000002C76D888DC67DA
:1000E0004F0823DFC1DFAE59E1B1B796E5E3E45332
:1000F000C63AE651997696E8E6C28426EB898C9B4F
:1001000062ED407C6FFCEFBC9C9F40F2BAA56FA5EE
:10011000F490055A2AF75C936B6CF9676DC11BFC70
:10012000E0E40D47FEF520E6B500D0ED902E03008B
:10013000943577050080841E080000204E0A0000D8
:1001400000C80C333333330F986E12831141EF8D97
:100150002114893BE65516CFFEE6DB18D1844B38D7
:100160001BF77C1D901DA4BBE424203284725E2208
:100170008100C9F124ECA1E53D2711241FBECFEF7A
:10018000D8E0DEBFCDBF12E0A0E0B1E0ECE6F3E1E5
:1001900002C005900D92A235B107D9F722E0A2E581
:1001A000B2E001C01D92AD35B207E1F70E94AF0188
:1001B0000C94B4090C9400001F920F920FB60F928A
:1001C00011240F931F932F933F934F935F936F933C
:1001D0007F938F939F93AF93BF93EF93FF93CF93AF
:1001E000DF93CDB7DEB72A97DEBFCDBF8091780011
:1001F0006091790070E0762F6627680F711D80E0AE
:1002000090E00E942A0620E030E040EA50E40E949C
:10021000B80620E030EC4FE754E40E94B8058E01A8
:100220000F5F1F4F22E041E00E942B07C8010E9490
:10023000EC022A960FB6F894DEBF0FBECDBFDF9159
:10024000CF91FF91EF91BF91AF919F918F917F914E
:100250006F915F914F913F912F911F910F910F904F
:100260000FBE0F901F901895EAE7F0E0808180683C
:10027000808380818660808380E480937C0080819D
:100280008860808380818064808308951092B900A3
:1002900084E18093B80084E08093BC00089584EAF0
:1002A0008093BC008091BC008823E4F7089584E922
:1002B0008093BC008FE99FE00197F1F700C0000038
:1002C00008958093BB0084EC8093BC008091BC00B7
:1002D0008823E4F708950E944F0180E70E9461019E
:1002E0008FEF0E9461012FEF89EF90E02150804055
:1002F0009040E1F700C0000084E30E94610180E3C8
:100300000E9461018FE39CE90197F1F700C00000B2
:1003100084E30E94610180E30E9461018FE99FE014
:100320000197F1F700C0000084E30E94610180E3BF
:100330000E9461018FE99FE00197F1F700C0000082
:1003400084E20E94610180E20E9461018FE99FE0E6
:100350000197F1F700C000000E94570108950E9424
:10036000CF010E9446010E94F9010E94AD030E9444
:100370008B028FEC90E00E94A2050E9434017894D9
:10038000EAE7F0E08081806480832FEF8BE49DE1D9
:10039000215080409040E1F700C00000F1CF8FEF86
:1003A00084B98AB11AB88BB18C608BB987B117B890
:1003B00088B1816088B90895CF93C82F0E944F01FA
:1003C00088E70E94610180E00E9461018C2F0E94F9
:1003D00061010E9457018FE39FE10197F1F700C08F
:1003E00000008FE39FE10197F1F700C00000CF917B
:1003F00008950E9446010E946B018EEA0E94DC0172
:1004000084ED0E94DC0180E80E94DC0188EA0E9401
:10041000DC018FE30E94DC0183ED0E94DC0180E0BF
:100420000E94DC0180E40E94DC018DE80E94DC0176
:1004300084E10E94DC0181EA0E94DC0188EC0E94D8
:10044000DC018AED0E94DC0182E10E94DC0181E88E
:100450000E94DC018FE00E94DC0189ED0E94DC013A
:1004600081EF0E94DC018BED0E94DC0180E40E94A0
:10047000DC0184EA0E94DC0186EA0E94DC018FEA4A
:100480000E94DC010895CF93C82F0E944F0188E796
:100490000E94610180E40E9461018C2F0E94610131
:1004A0000E9457018FE39FE10197F1F700C0000020
:1004B0008FE39FE10197F1F700C00000CF9108950D
:1004C000CF93DF9321E0883008F020E091E06F3790
:1004D00008F090E09223E1F0D62FC82F81E20E942D
:1004E000DC018D2F0E94DC018FE70E94DC0182E29B
:1004F0000E94DC018C2F0E94DC0187E00E94DC015D
:100500000E944F0188E70E94610180E40E9461011E
:10051000DF91CF9108950F931F93CF93DF93CDB7C2
:10052000DEB7A3970FB6F894DEBF0FBECDBF85E14F
:10053000E0E0F1E0DE01119601900D928A95E1F77D
:100540008EE0E5E1F1E0DE01569601900D928A958C
:10055000E1F760E086E00E94600200E010E00BC07E
:10056000E1E0F0E0EC0FFD1FE00FF11F80810E9441
:1005700043020F5F1F4F0531110594F300E010E0B7
:100580000BC0E6E1F0E0EC0FFD1FE00FF11F8081F2
:100590000E9443020F5F1F4F0E30110594F360E07D
:1005A00084E00E94600200E010E008C0F801E3501F
:1005B000FE4F80810E9443020F5F1F4F0E341105D2
:1005C000ACF3A3960FB6F894DEBF0FBECDBFDF919C
:1005D000CF911F910F9108950F931F93CF93DF93A6
:1005E0008C0163E286E00E94600280E00E94430288
:1005F000C0E09FC0F801EC0FF11DE0818E2F90E06C
:10060000FC01BE97EC30F10508F092C0EC5CFF4FA6
:100610000C942507ED2FF0E0E950FE4F80810E94F9
:100620004302DF5F01C0D0E0D630A0F381C0ED2FE0
:10063000F0E0EF50FE4F80810E944302DF5F01C077
:10064000D0E0D630A0F374C0ED2FF0E0E551FE4FBE
:1006500080810E944302DF5F01C0D0E0D630A0F36A
:1006600067C0ED2FF0E0EB51FE4F80810E94430206
:10067000DF5F01C0D0E0D630A0F35AC0ED2FF0E02C
:10068000E152FE4F80810E944302DF5F01C0D0E053
:10069000D630A0F34DC0ED2FF0E0E752FE4F808141
:1006A0000E944302DF5F01C0D0E0D630A0F340C01B
:1006B000ED2FF0E0ED52FE4F80810E944302DF5F9C
:1006C00001C0D0E0D630A0F333C0ED2FF0E0E3530B
:1006D000FE4F80810E944302DF5F01C0D0E0D63030
:1006E000A0F326C0ED2FF0E0E953FE4F80810E9479
:1006F0004302DF5F01C0D0E0D630A0F319C0ED2F78
:10070000F0E0EF53FE4F80810E944302DF5F01C0A3
:10071000D0E0D630A0F30CC0ED2FF0E0E554FE4F52
:1007200080810E944302DF5F01C0D0E0D630A0F399
:10073000CF5FC43008F45ECFC0E008C0EC2FF0E01B
:10074000E55BFD4F80810E944302CF5FC630B0F36E
:10075000DF91CF911F910F9108950F931F93CF9326
:10076000DF9300E010E010C060E0802F0E94600284
:10077000C0E0D0E004C080E00E9443022196C0386F
:10078000D105CCF30F5F1F4F083011056CF3DF91DB
:10079000CF911F910F9108951F93CF93DF93182F3F
:1007A00061E484E00E946002C0E0D0E004C080E028
:1007B0000E9443022196C332D105CCF3133061F07D
:1007C00028F41130D9F0123059F15FC0143009F417
:1007D0004BC01530B9F159C061E484E00E94600259
:1007E000C0E0D0E007C0FE01ED55FE4F80810E94C1
:1007F00043022196CE31D105B4F347C061E484E0D1
:100800000E946002C0E0D0E007C0FE01EF56FE4F3C
:1008100080810E9443022196C231D105B4F335C0D4
:1008200061E484E00E946002C0E0D0E007C0FE0105
:10083000ED58FE4F80810E9443022196CE31D105B2
:10084000B4F323C061E484E00E946002C0E0D0E021
:1008500007C0FE01E15BFE4F80810E9443022196AA
:10086000C432D105B4F311C061E484E00E94600297
:10087000C0E0D0E007C0FE01E55DFE4F80810E9430
:1008800043022196C432D105B4F3DF91CF911F9179
:1008900008951F920F920FB60F9211242F933F933A
:1008A0004F935F936F937F938F939F93AF93BF9378
:1008B000EF93FF938091C60080935C0280915C026D
:1008C000853461F0823519F0843421F514C081E05B
:1008D00090E090935B0280935A021CC080915A0270
:1008E00090915B020197B1F482E090E090935B02FB
:1008F00080935A020FC080915A0290915B02029736
:1009000049F410925B0210925A0288E085B981E0A6
:100910000E94CC0380915C02853451F118F482343A
:1009200031F035C08C3451F08535A9F030C081E00C
:1009300090E0909359028093580229C08091580208
:1009400090915902019719F582E090E09093590235
:10095000809358021CC080915802909159020297CE
:10096000B1F483E090E090935902809358020FC055
:100970008091580290915902039749F410925902BC
:100980001092580280E285B983E00E94CC038091E6
:100990005C02873449F018F48534D1F03CC08E34C1
:1009A00059F1823541F037C081E090E090935702D1
:1009B0008093560230C08091560290915702019761
:1009C00051F582E090E0909357028093560223C045
:1009D0008091560290915702029739F483E090E09B
:1009E000909357028093560216C084E090E0909353
:1009F0005702809356020FC0809156029091570281
:100A0000049749F4109257021092560280E185B97A
:100A100082E00E94CC0380915C02803549F018F49A
:100A2000853439F135C08235B9F0853541F030C0B3
:100A300081E090E0909353028093520229C080910C
:100A4000520290915302019719F582E090E0909341
:100A50005302809352021CC0809152029091530223
:100A60000297B1F483E090E0909353028093520296
:100A70000FC08091520290915302039749F4109253
:100A800053021092520288E285B984E00E94CC039E
:100A900080915C028C34E1F018F4853461F041C03F
:100AA000873581F18935E9F581E090E09093550231
:100AB0008093540236C08091540290915502019760
:100AC00081F582E090E0909355028093540229C012
:100AD0008091540290915502029739F483E090E09E
:100AE00090935502809354021CC0809154029091BF
:100AF00055020397B1F484E090E0909355028093FF
:100B000054020FC08091540290915502049749F409
:100B1000109255021092540288E185B985E00E9436
:100B2000CC03FF91EF91BF91AF919F918F917F91F6
:100B30006F915F914F913F912F910F900FBE0F904A
:100B40001F901895E2ECF0E020812F73208322E0C3
:100B50002093C0009093C5008093C40086E08083FA
:100B6000E1ECF0E088E180838081806880830895F3
:100B70000E94CC050C947E060E94770658F00E94D5
:100B8000700640F029F45F3F29F00C94670651117C
:100B90000C94B2060C946D060E948F0668F399239C
:100BA000B1F3552391F3951B550BBB27AA27621769
:100BB0007307840738F09F5F5F4F220F331F441F76
:100BC000AA1FA9F335D00E2E3AF0E0E832D09150AA
:100BD0005040E695001CCAF72BD0FE2F29D0660F97
:100BE000771F881FBB1F261737074807AB07B0E8DA
:100BF00009F0BB0B802DBF01FF2793585F4F3AF0E0
:100C00009E3F510578F00C9467060C94B2065F3F46
:100C1000E4F3983ED4F3869577956795B795F79565
:100C20009F5FC9F7880F911D9695879597F908954D
:100C3000E1E0660F771F881FBB1F621773078407E9
:100C4000BA0720F0621B730B840BBA0BEE1F88F7F8
:100C5000E0950895E89409C097FB3EF4909580953F
:100C6000709561957F4F8F4F9F4F9923A9F0F92F72
:100C700096E9BB279395F695879577956795B795F0
:100C8000F111F8CFFAF4BB0F11F460FF1BC06F5FD6
:100C90007F4F8F4F9F4F16C0882311F096E911C0E8
:100CA000772321F09EE8872F762F05C0662371F009
:100CB00096E8862F70E060E02AF09A95660F771F1D
:100CC000881FDAF7880F9695879597F9089597F911
:100CD0009F6780E870E060E008959FEF80EC0895E2
:100CE00000240A941616170618060906089500240B
:100CF0000A9412161306140605060895092E039485
:100D0000000C11F4882352F0BB0F40F4BF2B11F4F8
:100D100060FF04C06F5F7F4F8F4F9F4F089557FD57
:100D20009058440F551F59F05F3F71F04795880F59
:100D300097FB991F61F09F3F79F0879508951216F0
:100D400013061406551FF2CF4695F1DF08C016169C
:100D500017061806991FF1CF86957105610508944D
:100D60000895E894BB2766277727CB0197F9089564
:100D70000E94CB060C947E060E94700638F00E94FA
:100D8000770620F0952311F00C9467060C946D06FD
:100D900011240C94B2060E948F0670F3959FC1F344
:100DA000950F50E0551F629FF001729FBB27F00D19
:100DB000B11D639FAA27F00DB11DAA1F649F66276E
:100DC000B00DA11D661F829F2227B00DA11D621FBD
:100DD000739FB00DA11D621F839FA00D611D221F77
:100DE000749F3327A00D611D231F849F600D211D5B
:100DF000822F762F6A2F11249F5750409AF0F1F0DE
:100E000088234AF0EE0FFF1FBB1F661F771F881F46
:100E100091505040A9F79E3F510580F00C94670611
:100E20000C94B2065F3FE4F3983ED4F38695779531
:100E30006795B795F795E7959F5FC1F7FE2B880FEC
:100E4000911D9695879597F90895EE0FFF1F0590D0
:100E5000F491E02D0994EF920F931F93CF93DF93BA
:100E6000E80147FD02C034E001C034E1042E000C6B
:100E7000550B57FF03C0519541955109E32E022FA1
:100E8000242FAE010E944B07CE01DF91CF911F911D
:100E90000F91EF900895A9E0B0E0E1E5F7E00C9440
:100EA00083096A01122FB02E2BE3201720F0FF24B4
:100EB000F394F00E02C02CE3F22E0F2D27E0AE01CA
:100EC0004F5F5F4F0E94A508BC014981842F897044
:100ED000813031F0E1FC06C0E0FE06C090E205C0C2
:100EE0009DE203C09BE201C090E05E2D507143FF84
:100EF0003CC0911102C083E001C084E0811718F466
:100F0000212F281B01C020E051110BC0F601822FB8
:100F100030E2882319F031938150FBCFC20ED11CEF
:100F200020E0992329F0D6019C93F60131966F01B8
:100F3000C6010396E2FE0AC03EE4D6013C9341E4BA
:100F400011964C93119712963C9306C03EE6F6011B
:100F5000308341E641833283FC01322F40E2332368
:100F600009F442C041933150FACF42FF44C091117D
:100F700002C083E001C084E0811718F4212F281BF0
:100F800001C020E051110BC0F601822F30E288230E
:100F900019F031938150FBCFC20ED11C20E0992370
:100FA00029F0D6019C93F60131966F01C601039694
:100FB000E2FE0BC039E4D6013C933EE411963C932B
:100FC000119736E412963C9307C039E6F601308358
:100FD0003EE6318336E63283FC01322F40E2332392
:100FE00019F041933150FBCFFC01E20FF11D10824B
:100FF0008EEF9FEFA6C021E030E0911102C020E00B
:1010000030E0161617061CF4FB01319602C0E1E031
:10101000F0E02E0F3F1FBB2021F0EB2DF0E03196CA
:1010200002C0E0E0F0E02E0F3F1FE12FF0E02E17AE
:101030003F071CF4121B212F01C020E08E2D887168
:1010400059F4F601822F30E2882319F03193815050
:10105000FBCFC20ED11C20E0992329F0D6019C932E
:10106000F60131966F0151110BC0F601822F90E30A
:10107000882319F091938150FBCFC20ED11C20E040
:101080000F2D060F9A81342F307144FF03C0913326
:1010900009F40150101624F4093018F008E001C0DA
:1010A00001E0AB0177FF02C040E050E0FB01E41B30
:1010B000F50BA1E0B0E0AC0FBD1FEA0FFB1F8EE205
:1010C000A82E4B01801A91080B2D10E01195019567
:1010D00011094F3FBFEF5B0721F4D601AC92119687
:1010E0006D01641775072CF08416950614F4818140
:1010F00001C080E3415051093196D60111967D011E
:101100004017510724F0D6018C936701E2CF641792
:10111000750739F4963320F4953319F4311101C071
:1011200081E3F6018083F701822F90E2882319F092
:1011300091938150FBCFF701E20FF11D108280E007
:1011400090E02996ECE00C949F09283008F027E005
:101150003327DA01990F311D87FD916000966105F3
:10116000710539F432602E5F3D9330E32A95E1F743
:1011700008959F3F30F080387105610509F03C5FAC
:101180003C5F3D93913008F08068911DDF93CF93D1
:101190001F930F93FF92EF92192F987F9695E92F47
:1011A00096959695E90FFF27E652FF4F992733272B
:1011B000EE24FF24A701E70105900894079428F482
:1011C000360FE71EF81E491F511D660F771F881F37
:1011D000991F0694A1F70590079428F4E70EF81ECE
:1011E000491F561FC11D770F881F991F661F069440
:1011F000A1F70590079428F4F80E491F561FC71F42
:10120000D11D880F991F661F771F0694A1F70590BF
:10121000079420F4490F561FC71FD81F990F661F48
:10122000771F881F0694A9F784911095177041F0D5
:10123000D695C79557954795F794E7941A95C1F7B2
:10124000E0E8F0E0689415901591359165919591DD
:1012500005907FE27395E118F10A430B560BC90B19
:10126000D009C0F7E10CF11E431F561FC91FD01D46
:101270007EF4703311F48A95E6CFE894015030F093
:10128000080F0AF40027021708F4202F2395022FD5
:101290007A3328F079E37D932A95E9F710C07D939E
:1012A0002A9589F60694979567953795179517941B
:1012B000E118F10A430B560BC90BD00998F023959E
:1012C0007E9173957A3308F070E37C932013B8F71E
:1012D0007E9170617D9330F0839571E37D9370E32F
:1012E0002A95E1F71124EF90FF900F911F91CF9174
:1012F000DF91992787FD909508952F923F924F9205
:101300005F926F927F928F929F92AF92BF92CF9295
:10131000DF92EF92FF920F931F93CF93DF93CDB79E
:10132000DEB7CA1BDB0B0FB6F894DEBF0FBECDBF16
:1013300009942A88398848885F846E847D848C84E7
:101340009B84AA84B984C884DF80EE80FD800C81F0
:101350001B81AA81B981CE0FD11D0FB6F894DEBFD3
:0C1360000FBECDBFED010895F894FFCF43
:10136C007C1211127C00007F4141221C00003E4186
:10137C0041412200003E5149453E00001414141412
:10138C0014000080804060F86040807F09090906E5
:10139C00003F4040403F007F09192946007F090962
:1013AC000906007F40404040007F49494941000701
:1013BC0008700807007F49494941007F4040404080
:1013CC00007F40404040003E4141413E003F40389C
:1013DC00403F003E4149497A007F09192946007F68
:1013EC0049494941007F49494941007F0408107F20
:1013FC00007F09192946007F49494941007F414135
:10140C00221C007F49494936007F40404040003F44
:10141C004040403F007F4949494100006060000066
:10142C0000064949291E003649494936000171090F
:10143C000503003C4A494930002745454539001809
:10144C0014127F10002141454B3100426151494635
:10145C000000427F4000003E5149453E007F404025
:10146C004040007F49494941007F4141221C000016
:10147C00000000000046494949310001017F01018B
:10148C00007C1211127C0001017F0101007F49498F
:10149C00494100141414141400000000000000084A
:1014AC0008080808000808080808001F2040201F2A
:0214BC0000002E
:040000030000029E59
:00000001FF
