:100000000C9434000C9449000C9449000C94490061
:100010000C9449000C9449000C9449000C9449003C
:100020000C9449000C9449000C9449000C9449002C
:100030000C9449000C9449000C9449000C9449001C
:100040000C9449000C9449000C9449000C9449000C
:100050000C9449000C9449000C9449000C944900FC
:100060000C9449000C94490011241FBECFEFD8E036
:10007000DEBFCDBF11E0A0E0B1E0E6E0F4E002C0F9
:1000800005900D92A034B107D9F70E9464010C9439
:1000900001020C9400001092B90084E18093B80032
:1000A00084E08093BC00089584EA8093BC00809132
:1000B000BC008823E4F7089584E98093BC008FE9AD
:1000C0009FE00197F1F700C0000008958093BB0006
:1000D00084EC8093BC008091BC008823E4F70895F1
:1000E0000E94540080E70E9466008FEF0E94660025
:1000F0002FEF89EF90E0215080409040E1F700C061
:10010000000084E30E94660080E30E9466008FE3A3
:100110009CE90197F1F700C0000084E30E946600AB
:1001200080E30E9466008FE99FE00197F1F700C02D
:10013000000084E30E94660080E30E9466008FE96D
:100140009FE00197F1F700C0000084E20E94660082
:1001500080E20E9466008FE99FE00197F1F700C0FE
:1001600000000E945C000895CF93DF93C82F0E9487
:10017000540080E70E946600DC2FD07F8D2F8C60BA
:100180000E9466008D2F88600E94660080E1C89FF3
:10019000E00111248C2F8C600E9466008C2F0E943D
:1001A00066000E945C008FE39FE10197F1F700C0B9
:1001B00000008FE39FE10197F1F700C00000DF919D
:1001C000CF9108950E944B000E9470008CE20E9423
:1001D000B4008CE00E94B40086E00E94B40080E885
:1001E0000E94B4000895CF93DF93C82F0E9454005B
:1001F00080E70E946600DC2FD07F8D2F8D600E94EB
:1002000066008D2F89600E94660080E1C89FE00132
:1002100011248C2F8D600E9466008C2F89600E94B3
:1002200066000E945C008FE39FE10197F1F700C038
:1002300000008FE39FE10197F1F700C00000DF911C
:10024000CF9108950F931F93CF938B01883090F433
:1002500090E00896880F880F880F0E94B400C0E0D5
:1002600007C0F801EC0FF11D80810E94F300CF5F01
:10027000C830B8F380E80E94B400CF911F910F916D
:100280000895CF9380E00E94B400C0E019C08C2F85
:100290000E94F3002FEF85EA9EE0215080409040BD
:1002A000E1F700C000002FEF85EA9EE0215080407A
:1002B0009040E1F700C0000080E80E94B400CF5FEA
:1002C000C73028F3CF910895CF93DF93CDB7DEB732
:1002D000C054D1090FB6F894DEBF0FBECDBF88E081
:1002E000E0E0F1E0DE01119601900D928A95E1F7D0
:1002F00088E0E8E0F1E0DE01199601900D928A9520
:10030000E1F788E0E0E1F1E0DE01519601900D9225
:100310008A95E1F788E0E8E1F1E0DE015996019085
:100320000D928A95E1F788E0E0E2F1E0DE01919636
:1003300001900D928A95E1F788E0E8E2F1E0DE01B4
:10034000999601900D928A95E1F788E0E0E3F1E05B
:10035000DE01D19601900D928A95E1F788E0E8E3FD
:10036000F1E0DE01D99601900D928A95E1F70E94A5
:10037000FB010E944B000E94E200BE016F5F7F4FB5
:1003800080E00E942201BE01675F7F4F81E00E94F2
:100390002201BE016F5E7F4F82E00E942201BE01FA
:1003A000675E7F4F83E00E942201BE016F5D7F4F39
:1003B00084E00E942201BE01675D7F4F85E00E94BC
:1003C0002201BE016F5C7F4F86E00E942201BE01C8
:1003D000675C7F4F87E00E9422010E94410180E01C
:1003E00090E0C05CDF4F0FB6F894DEBF0FBECDBF0C
:1003F000DF91CF9108958FEF84B98AB18C608AB96B
:060400000895F894FFCFFF
:1004060000000A15110A040000000A1F1F0E04004E
:10041600000000000000040A0000000000040A15A5
:1004260000000000040A1511000000040A15111549
:100436000000040A151115FF00040A151115FFFF27
:04000003000000A851
:00000001FF
